{
  "contractName": "RepositoryService",
  "abi": [
    {
      "inputs": [
        {
          "internalType": "address",
          "name": "_UserService",
          "type": "address"
        }
      ],
      "stateMutability": "nonpayable",
      "type": "constructor"
    },
    {
      "anonymous": false,
      "inputs": [
        {
          "indexed": false,
          "internalType": "uint256",
          "name": "id",
          "type": "uint256"
        }
      ],
      "name": "RepositoryAdded",
      "type": "event"
    },
    {
      "inputs": [],
      "name": "currentId",
      "outputs": [
        {
          "internalType": "uint256",
          "name": "",
          "type": "uint256"
        }
      ],
      "stateMutability": "view",
      "type": "function"
    },
    {
      "inputs": [],
      "name": "GetNames",
      "outputs": [
        {
          "internalType": "string[]",
          "name": "",
          "type": "string[]"
        }
      ],
      "stateMutability": "view",
      "type": "function"
    },
    {
      "inputs": [
        {
          "internalType": "string",
          "name": "name",
          "type": "string"
        }
      ],
      "name": "CreateRepository",
      "outputs": [],
      "stateMutability": "nonpayable",
      "type": "function"
    },
    {
      "inputs": [
        {
          "internalType": "string",
          "name": "name",
          "type": "string"
        }
      ],
      "name": "getRepository",
      "outputs": [
        {
          "internalType": "address",
          "name": "",
          "type": "address"
        }
      ],
      "stateMutability": "view",
      "type": "function"
    },
    {
      "inputs": [
        {
          "internalType": "uint256",
          "name": "id",
          "type": "uint256"
        }
      ],
      "name": "getRepository",
      "outputs": [
        {
          "internalType": "address",
          "name": "",
          "type": "address"
        }
      ],
      "stateMutability": "view",
      "type": "function"
    },
    {
      "inputs": [
        {
          "internalType": "string",
          "name": "name",
          "type": "string"
        }
      ],
      "name": "CheckIfRepoExists",
      "outputs": [
        {
          "internalType": "bool",
          "name": "",
          "type": "bool"
        }
      ],
      "stateMutability": "view",
      "type": "function"
    },
    {
      "inputs": [
        {
          "internalType": "uint256",
          "name": "id",
          "type": "uint256"
        }
      ],
      "name": "CheckIfRepoExists",
      "outputs": [
        {
          "internalType": "bool",
          "name": "",
          "type": "bool"
        }
      ],
      "stateMutability": "view",
      "type": "function"
    }
  ],
  "bytecode": "0x608060405234801561001057600080fd5b5060405162001ce438038062001ce483398181016040528101906100349190610098565b600160008190555080600660006101000a81548173ffffffffffffffffffffffffffffffffffffffff021916908373ffffffffffffffffffffffffffffffffffffffff1602179055505061010a565b600081519050610092816100f3565b92915050565b6000602082840312156100aa57600080fd5b60006100b884828501610083565b91505092915050565b60006100cc826100d3565b9050919050565b600073ffffffffffffffffffffffffffffffffffffffff82169050919050565b6100fc816100c1565b811461010757600080fd5b50565b611bca806200011a6000396000f3fe608060405234801561001057600080fd5b506004361061007d5760003560e01c80635cad754f1161005b5780635cad754f146101125780639c6f4a3d1461012e578063c4cc75311461015e578063e00dd1611461017c5761007d565b806322dd1a1e14610082578063241d11ee146100b25780635be08933146100e2575b600080fd5b61009c60048036038101906100979190610b5d565b61019a565b6040516100a99190610e38565b60405180910390f35b6100cc60048036038101906100c79190610b5d565b61022a565b6040516100d99190610e75565b60405180910390f35b6100fc60048036038101906100f79190610bdf565b6102a1565b6040516101099190610e38565b60405180910390f35b61012c60048036038101906101279190610b5d565b610326565b005b61014860048036038101906101439190610bdf565b6107dd565b6040516101559190610e75565b60405180910390f35b6101666107fa565b6040516101739190610e53565b60405180910390f35b6101846108e3565b6040516101919190610f42565b60405180910390f35b60006101a58261022a565b6101e4576040517f08c379a00000000000000000000000000000000000000000000000000000000081526004016101db90610ee2565b60405180910390fd5b6004826040516101f49190610e21565b908152602001604051809103902060009054906101000a900473ffffffffffffffffffffffffffffffffffffffff169050919050565b60008073ffffffffffffffffffffffffffffffffffffffff166004836040516102539190610e21565b908152602001604051809103902060009054906101000a900473ffffffffffffffffffffffffffffffffffffffff1673ffffffffffffffffffffffffffffffffffffffff1614159050919050565b60006102ac826107dd565b6102eb576040517f08c379a00000000000000000000000000000000000000000000000000000000081526004016102e290610ee2565b60405180910390fd5b6003600083815260200190815260200160002060009054906101000a900473ffffffffffffffffffffffffffffffffffffffff169050919050565b61032f8161022a565b1561036f576040517f08c379a000000000000000000000000000000000000000000000000000000000815260040161036690610f02565b60405180910390fd5b600060405161037d906109b0565b604051809103906000f080158015610399573d6000803e3d6000fd5b5090508073ffffffffffffffffffffffffffffffffffffffff1663c47f0027836040518263ffffffff1660e01b81526004016103d59190610e90565b600060405180830381600087803b1580156103ef57600080fd5b505af1158015610403573d6000803e3d6000fd5b505050508073ffffffffffffffffffffffffffffffffffffffff1663d0e0ba956000546040518263ffffffff1660e01b81526004016104429190610f42565b600060405180830381600087803b15801561045c57600080fd5b505af1158015610470573d6000803e3d6000fd5b50505050806004836040516104859190610e21565b908152602001604051809103902060006101000a81548173ffffffffffffffffffffffffffffffffffffffff021916908373ffffffffffffffffffffffffffffffffffffffff16021790555080600360008054815260200190815260200160002060006101000a81548173ffffffffffffffffffffffffffffffffffffffff021916908373ffffffffffffffffffffffffffffffffffffffff16021790555061053a60005460016108e990919063ffffffff16565b506005829080600181540180825580915050600190039060005260206000200160009091909190915090805190602001906105769291906109bd565b507f0db74b926d31db04a7a99ac21cece683972e5f0fd24f02f7bf308568ace64a2d6000546040516105a89190610f42565b60405180910390a1600660009054906101000a900473ffffffffffffffffffffffffffffffffffffffff1673ffffffffffffffffffffffffffffffffffffffff166352aeb8a26040518163ffffffff1660e01b815260040160206040518083038186803b15801561061857600080fd5b505afa15801561062c573d6000803e3d6000fd5b505050506040513d601f19601f820116820180604052508101906106509190610b34565b61068f576040517f08c379a000000000000000000000000000000000000000000000000000000000815260040161068690610f22565b60405180910390fd5b6060600660009054906101000a900473ffffffffffffffffffffffffffffffffffffffff1673ffffffffffffffffffffffffffffffffffffffff1663ef9ebac46040518163ffffffff1660e01b815260040160006040518083038186803b1580156106f957600080fd5b505afa15801561070d573d6000803e3d6000fd5b505050506040513d6000823e3d601f19601f820116820180604052508101906107369190610b9e565b9050600660009054906101000a900473ffffffffffffffffffffffffffffffffffffffff1673ffffffffffffffffffffffffffffffffffffffff166367125ed882846040518363ffffffff1660e01b8152600401610795929190610eb2565b600060405180830381600087803b1580156107af57600080fd5b505af11580156107c3573d6000803e3d6000fd5b505050506000808154809291906001019190505550505050565b60006107f382600161090390919063ffffffff16565b9050919050565b60606005805480602002602001604051908101604052809291908181526020016000905b828210156108da578382906000526020600020018054600181600116156101000203166002900480601f0160208091040260200160405190810160405280929190818152602001828054600181600116156101000203166002900480156108c65780601f1061089b576101008083540402835291602001916108c6565b820191906000526020600020905b8154815290600101906020018083116108a957829003601f168201915b50505050508152602001906001019061081e565b50505050905090565b60005481565b60006108fb836000018360001b61091d565b905092915050565b6000610915836000018360001b61098d565b905092915050565b6000610929838361098d565b610982578260000182908060018154018082558091505060019003906000526020600020016000909190919091505582600001805490508360010160008481526020019081526020016000208190555060019050610987565b600090505b92915050565b600080836001016000848152602001908152602001600020541415905092915050565b610aa4806110f183390190565b828054600181600116156101000203166002900490600052602060002090601f016020900481019282601f106109fe57805160ff1916838001178555610a2c565b82800160010185558215610a2c579182015b82811115610a2b578251825591602001919060010190610a10565b5b509050610a399190610a3d565b5090565b610a5f91905b80821115610a5b576000816000905550600101610a43565b5090565b90565b600081519050610a71816110c2565b92915050565b600082601f830112610a8857600080fd5b8135610a9b610a9682610f8a565b610f5d565b91508082526020830160208301858383011115610ab757600080fd5b610ac283828461106f565b50505092915050565b600082601f830112610adc57600080fd5b8151610aef610aea82610f8a565b610f5d565b91508082526020830160208301858383011115610b0b57600080fd5b610b1683828461107e565b50505092915050565b600081359050610b2e816110d9565b92915050565b600060208284031215610b4657600080fd5b6000610b5484828501610a62565b91505092915050565b600060208284031215610b6f57600080fd5b600082013567ffffffffffffffff811115610b8957600080fd5b610b9584828501610a77565b91505092915050565b600060208284031215610bb057600080fd5b600082015167ffffffffffffffff811115610bca57600080fd5b610bd684828501610acb565b91505092915050565b600060208284031215610bf157600080fd5b6000610bff84828501610b1f565b91505092915050565b6000610c148383610caf565b905092915050565b610c2581611027565b82525050565b6000610c3682610fc6565b610c408185610fe9565b935083602082028501610c5285610fb6565b8060005b85811015610c8e5784840389528151610c6f8582610c08565b9450610c7a83610fdc565b925060208a01995050600181019050610c56565b50829750879550505050505092915050565b610ca981611039565b82525050565b6000610cba82610fd1565b610cc48185610ffa565b9350610cd481856020860161107e565b610cdd816110b1565b840191505092915050565b6000610cf382610fd1565b610cfd818561100b565b9350610d0d81856020860161107e565b610d16816110b1565b840191505092915050565b6000610d2c82610fd1565b610d36818561101c565b9350610d4681856020860161107e565b80840191505092915050565b6000610d5f601d8361100b565b91507f54686973207265706f7369746f727920646f65736e27742065786973740000006000830152602082019050919050565b6000610d9f601b8361100b565b91507f54686973206e616d6520697320616c726561647920696e2075736500000000006000830152602082019050919050565b6000610ddf60198361100b565b91507f596f7520646f6e2774206861766520616e206163636f756e74000000000000006000830152602082019050919050565b610e1b81611065565b82525050565b6000610e2d8284610d21565b915081905092915050565b6000602082019050610e4d6000830184610c1c565b92915050565b60006020820190508181036000830152610e6d8184610c2b565b905092915050565b6000602082019050610e8a6000830184610ca0565b92915050565b60006020820190508181036000830152610eaa8184610ce8565b905092915050565b60006040820190508181036000830152610ecc8185610ce8565b9050610edb6020830184610c1c565b9392505050565b60006020820190508181036000830152610efb81610d52565b9050919050565b60006020820190508181036000830152610f1b81610d92565b9050919050565b60006020820190508181036000830152610f3b81610dd2565b9050919050565b6000602082019050610f576000830184610e12565b92915050565b6000604051905081810181811067ffffffffffffffff82111715610f8057600080fd5b8060405250919050565b600067ffffffffffffffff821115610fa157600080fd5b601f19601f8301169050602081019050919050565b6000819050602082019050919050565b600081519050919050565b600081519050919050565b6000602082019050919050565b600082825260208201905092915050565b600082825260208201905092915050565b600082825260208201905092915050565b600081905092915050565b600061103282611045565b9050919050565b60008115159050919050565b600073ffffffffffffffffffffffffffffffffffffffff82169050919050565b6000819050919050565b82818337600083830152505050565b60005b8381101561109c578082015181840152602081019050611081565b838111156110ab576000848401525b50505050565b6000601f19601f8301169050919050565b6110cb81611039565b81146110d657600080fd5b50565b6110e281611065565b81146110ed57600080fd5b5056fe608060405234801561001057600080fd5b506000329050806000806101000a81548173ffffffffffffffffffffffffffffffffffffffff021916908373ffffffffffffffffffffffffffffffffffffffff1602179055508073ffffffffffffffffffffffffffffffffffffffff16600073ffffffffffffffffffffffffffffffffffffffff167f8be0079c531659141344cd1fd0a4f28419497f9722a3daafe3b4186f6b6457e060405160405180910390a3506109e3806100c16000396000f3fe608060405234801561001057600080fd5b506004361061009e5760003560e01c8063aa3ec0a911610066578063aa3ec0a91461023d578063af640d0f146102c0578063c47f0027146102de578063d0e0ba9514610399578063f2fde38b146103c75761009e565b806306fdde03146100a357806317d7de7c146101265780635d1ca631146101a957806362a87ad5146101c75780638da5cb5b146101f3575b600080fd5b6100ab61040b565b6040518080602001828103825283818151815260200191508051906020019080838360005b838110156100eb5780820151818401526020810190506100d0565b50505050905090810190601f1680156101185780820380516001836020036101000a031916815260200191505b509250505060405180910390f35b61012e6104a9565b6040518080602001828103825283818151815260200191508051906020019080838360005b8381101561016e578082015181840152602081019050610153565b50505050905090810190601f16801561019b5780820380516001836020036101000a031916815260200191505b509250505060405180910390f35b6101b161054b565b6040518082815260200191505060405180910390f35b6101cf610555565b604051808260018111156101df57fe5b60ff16815260200191505060405180910390f35b6101fb610568565b604051808273ffffffffffffffffffffffffffffffffffffffff1673ffffffffffffffffffffffffffffffffffffffff16815260200191505060405180910390f35b610245610591565b6040518080602001828103825283818151815260200191508051906020019080838360005b8381101561028557808201518184015260208101905061026a565b50505050905090810190601f1680156102b25780820380516001836020036101000a031916815260200191505b509250505060405180910390f35b6102c861062f565b6040518082815260200191505060405180910390f35b610397600480360360208110156102f457600080fd5b810190808035906020019064010000000081111561031157600080fd5b82018360208201111561032357600080fd5b8035906020019184600183028401116401000000008311171561034557600080fd5b91908080601f016020809104026020016040519081016040528093929190818152602001838380828437600081840152601f19601f820116905080830192505050505050509192919290505050610635565b005b6103c5600480360360208110156103af57600080fd5b81019080803590602001909291905050506106aa565b005b610409600480360360208110156103dd57600080fd5b81019080803573ffffffffffffffffffffffffffffffffffffffff1690602001909291905050506106b4565b005b60028054600181600116156101000203166002900480601f0160208091040260200160405190810160405280929190818152602001828054600181600116156101000203166002900480156104a15780601f10610476576101008083540402835291602001916104a1565b820191906000526020600020905b81548152906001019060200180831161048457829003601f168201915b505050505081565b606060028054600181600116156101000203166002900480601f0160208091040260200160405190810160405280929190818152602001828054600181600116156101000203166002900480156105415780601f1061051657610100808354040283529160200191610541565b820191906000526020600020905b81548152906001019060200180831161052457829003601f168201915b5050505050905090565b6000600354905090565b600460009054906101000a900460ff1681565b60008060009054906101000a900473ffffffffffffffffffffffffffffffffffffffff16905090565b60018054600181600116156101000203166002900480601f0160208091040260200160405190810160405280929190818152602001828054600181600116156101000203166002900480156106275780601f106105fc57610100808354040283529160200191610627565b820191906000526020600020905b81548152906001019060200180831161060a57829003601f168201915b505050505081565b60035481565b600081511415610690576040517f08c379a00000000000000000000000000000000000000000000000000000000081526004018080602001828103825260288152602001806109866028913960400191505060405180910390fd5b80600290805190602001906106a69291906108ba565b5050565b8060038190555050565b3373ffffffffffffffffffffffffffffffffffffffff166000809054906101000a900473ffffffffffffffffffffffffffffffffffffffff1673ffffffffffffffffffffffffffffffffffffffff1614610776576040517f08c379a00000000000000000000000000000000000000000000000000000000081526004018080602001828103825260208152602001807f4f776e61626c653a2063616c6c6572206973206e6f7420746865206f776e657281525060200191505060405180910390fd5b600073ffffffffffffffffffffffffffffffffffffffff168173ffffffffffffffffffffffffffffffffffffffff1614156107fc576040517f08c379a00000000000000000000000000000000000000000000000000000000081526004018080602001828103825260268152602001806109606026913960400191505060405180910390fd5b8073ffffffffffffffffffffffffffffffffffffffff166000809054906101000a900473ffffffffffffffffffffffffffffffffffffffff1673ffffffffffffffffffffffffffffffffffffffff167f8be0079c531659141344cd1fd0a4f28419497f9722a3daafe3b4186f6b6457e060405160405180910390a3806000806101000a81548173ffffffffffffffffffffffffffffffffffffffff021916908373ffffffffffffffffffffffffffffffffffffffff16021790555050565b828054600181600116156101000203166002900490600052602060002090601f016020900481019282601f106108fb57805160ff1916838001178555610929565b82800160010185558215610929579182015b8281111561092857825182559160200191906001019061090d565b5b509050610936919061093a565b5090565b61095c91905b80821115610958576000816000905550600101610940565b5090565b9056fe4f776e61626c653a206e6577206f776e657220697320746865207a65726f2061646472657373506c656173652070726f766964652061206e616d6520666f7220746865207265706f7369746f7279a264697066735822122034dc3d969b7b251df27c2eacfa22d43e4443fa17ba59ad695bab5e825010272964736f6c63430006080033a2646970667358221220dc17dd50cf884dc90c16a9c7cbca2f5a58734326a405423af74db714cb13627a64736f6c63430006080033",
  "immutableReferences": {},
  "source": "// SPDX-License-Identifier: MIT\r\npragma solidity >=0.6.0;\r\npragma experimental ABIEncoderV2;\r\n\r\nimport './Repository.sol';\r\nimport \"../node_modules/@openzeppelin/contracts/utils/EnumerableSet.sol\";\r\nimport './UserService.sol';\r\n\r\ncontract RepositoryService {\r\n    using EnumerableSet for EnumerableSet.UintSet;\r\n    uint256 public currentId;\r\n    EnumerableSet.UintSet repoids;\r\n    mapping(uint256 => address) idToRepository;\r\n\r\n    event RepositoryAdded(uint256 id);\r\n\r\n    mapping(string => address) nameToRepository;\r\n    string[] names;\r\n\r\n    UserService userServiceContract;\r\n\r\n    constructor(address _UserService) public {\r\n        currentId = 1;\r\n        userServiceContract = UserService(_UserService);\r\n    }\r\n\r\n    //May want to change this to n-Names\r\n    function GetNames() public view returns(string[] memory) {\r\n        return names;\r\n    }\r\n\r\n    function CreateRepository(string memory name) public {\r\n        require(!CheckIfRepoExists(name),\"This name is already in use\");\r\n\r\n        Repository repo = new Repository();\r\n        repo.setName(name);\r\n        repo.setId(currentId);\r\n\r\n        nameToRepository[name] = address(repo);\r\n        idToRepository[currentId] = address(repo);\r\n\r\n        repoids.add(currentId);\r\n        names.push(name);\r\n\r\n        emit RepositoryAdded(currentId);\r\n\r\n        require(userServiceContract.TXUserHasAccount(),\"You don't have an account\");\r\n\r\n        string memory username = userServiceContract.GetUsernameFromTXUser();\r\n        userServiceContract.addRepositoryToUser(username,address(repo));\r\n\r\n        currentId++;\r\n    }\r\n\r\n    function getRepository(uint256 id) public view returns(address) {\r\n        require(CheckIfRepoExists(id),\"This repository doesn't exist\");\r\n        return idToRepository[id];\r\n    }\r\n\r\n    function getRepository(string memory name) public view returns(address) {\r\n        require(CheckIfRepoExists(name),\"This repository doesn't exist\");\r\n        return nameToRepository[name];\r\n    }\r\n\r\n    function CheckIfRepoExists(uint256 id) public view returns(bool) {\r\n        return repoids.contains(id);\r\n    }\r\n\r\n    function CheckIfRepoExists(string memory name) public view returns(bool) {\r\n        return nameToRepository[name] != address(0);\r\n    }\r\n}",
  "sourcePath": "C:\\Users\\gebruiker\\Desktop\\Studies\\Bachelor proef\\Bachelorproef\\Demo\\Demo\\Contracts\\contracts\\RepositoryService.sol",
  "compiler": {
    "name": "solc",
    "version": "0.6.8+commit.0bbfe453.Emscripten.clang"
  },
  "schemaVersion": "3.1.0",
  "updatedAt": "2020-05-25T07:59:47.315Z",
  "devdoc": {
    "methods": {}
  },
  "userdoc": {
    "methods": {}
  }
}