{
  "contractName": "RepositoryService",
  "abi": [
    {
      "inputs": [
        {
          "internalType": "address",
          "name": "_UserService",
          "type": "address"
        }
      ],
      "stateMutability": "nonpayable",
      "type": "constructor"
    },
    {
      "anonymous": false,
      "inputs": [
        {
          "indexed": false,
          "internalType": "uint256",
          "name": "id",
          "type": "uint256"
        }
      ],
      "name": "RepositoryAdded",
      "type": "event"
    },
    {
      "inputs": [],
      "name": "currentId",
      "outputs": [
        {
          "internalType": "uint256",
          "name": "",
          "type": "uint256"
        }
      ],
      "stateMutability": "view",
      "type": "function"
    },
    {
      "inputs": [],
      "name": "GetNames",
      "outputs": [
        {
          "internalType": "string[]",
          "name": "",
          "type": "string[]"
        }
      ],
      "stateMutability": "view",
      "type": "function"
    },
    {
      "inputs": [
        {
          "internalType": "string",
          "name": "name",
          "type": "string"
        },
        {
          "internalType": "string",
          "name": "cid",
          "type": "string"
        }
      ],
      "name": "CreateRepository",
      "outputs": [],
      "stateMutability": "nonpayable",
      "type": "function"
    },
    {
      "inputs": [
        {
          "internalType": "string",
          "name": "name",
          "type": "string"
        }
      ],
      "name": "getRepository",
      "outputs": [
        {
          "internalType": "address",
          "name": "",
          "type": "address"
        }
      ],
      "stateMutability": "view",
      "type": "function"
    },
    {
      "inputs": [
        {
          "internalType": "uint256",
          "name": "id",
          "type": "uint256"
        }
      ],
      "name": "getRepository",
      "outputs": [
        {
          "internalType": "address",
          "name": "",
          "type": "address"
        }
      ],
      "stateMutability": "view",
      "type": "function"
    },
    {
      "inputs": [
        {
          "internalType": "string",
          "name": "name",
          "type": "string"
        }
      ],
      "name": "CheckIfRepoExists",
      "outputs": [
        {
          "internalType": "bool",
          "name": "",
          "type": "bool"
        }
      ],
      "stateMutability": "view",
      "type": "function"
    },
    {
      "inputs": [
        {
          "internalType": "uint256",
          "name": "id",
          "type": "uint256"
        }
      ],
      "name": "CheckIfRepoExists",
      "outputs": [
        {
          "internalType": "bool",
          "name": "",
          "type": "bool"
        }
      ],
      "stateMutability": "view",
      "type": "function"
    }
  ],
  "bytecode": "0x60806040523480156200001157600080fd5b50604051620021223803806200212283398181016040528101906200003791906200009e565b600160008190555080600660006101000a81548173ffffffffffffffffffffffffffffffffffffffff021916908373ffffffffffffffffffffffffffffffffffffffff1602179055505062000118565b6000815190506200009881620000fe565b92915050565b600060208284031215620000b157600080fd5b6000620000c18482850162000087565b91505092915050565b6000620000d782620000de565b9050919050565b600073ffffffffffffffffffffffffffffffffffffffff82169050919050565b6200010981620000ca565b81146200011557600080fd5b50565b611ffa80620001286000396000f3fe608060405234801561001057600080fd5b506004361061007d5760003560e01c80639c6f4a3d1161005b5780639c6f4a3d14610112578063a58f00bd14610142578063c4cc75311461015e578063e00dd1611461017c5761007d565b806322dd1a1e14610082578063241d11ee146100b25780635be08933146100e2575b600080fd5b61009c60048036038101906100979190610bc9565b61019a565b6040516100a99190610f10565b60405180910390f35b6100cc60048036038101906100c79190610bc9565b61022a565b6040516100d99190610f4d565b60405180910390f35b6100fc60048036038101906100f79190610cb7565b6102a1565b6040516101099190610f10565b60405180910390f35b61012c60048036038101906101279190610cb7565b610326565b6040516101399190610f4d565b60405180910390f35b61015c60048036038101906101579190610c4b565b610343565b005b610166610866565b6040516101739190610f2b565b60405180910390f35b61018461094f565b604051610191919061101a565b60405180910390f35b60006101a58261022a565b6101e4576040517f08c379a00000000000000000000000000000000000000000000000000000000081526004016101db90610fba565b60405180910390fd5b6004826040516101f49190610ef9565b908152602001604051809103902060009054906101000a900473ffffffffffffffffffffffffffffffffffffffff169050919050565b60008073ffffffffffffffffffffffffffffffffffffffff166004836040516102539190610ef9565b908152602001604051809103902060009054906101000a900473ffffffffffffffffffffffffffffffffffffffff1673ffffffffffffffffffffffffffffffffffffffff1614159050919050565b60006102ac82610326565b6102eb576040517f08c379a00000000000000000000000000000000000000000000000000000000081526004016102e290610fba565b60405180910390fd5b6003600083815260200190815260200160002060009054906101000a900473ffffffffffffffffffffffffffffffffffffffff169050919050565b600061033c82600161095590919063ffffffff16565b9050919050565b61034c8261022a565b1561038c576040517f08c379a000000000000000000000000000000000000000000000000000000000815260040161038390610fda565b60405180910390fd5b600060405161039a90610a1c565b604051809103906000f0801580156103b6573d6000803e3d6000fd5b5090508073ffffffffffffffffffffffffffffffffffffffff1663c47f0027846040518263ffffffff1660e01b81526004016103f29190610f68565b600060405180830381600087803b15801561040c57600080fd5b505af1158015610420573d6000803e3d6000fd5b505050508073ffffffffffffffffffffffffffffffffffffffff1663d0e0ba956000546040518263ffffffff1660e01b815260040161045f919061101a565b600060405180830381600087803b15801561047957600080fd5b505af115801561048d573d6000803e3d6000fd5b505050508073ffffffffffffffffffffffffffffffffffffffff1663b7e03bec836040518263ffffffff1660e01b81526004016104ca9190610f68565b600060405180830381600087803b1580156104e457600080fd5b505af11580156104f8573d6000803e3d6000fd5b505050508060048460405161050d9190610ef9565b908152602001604051809103902060006101000a81548173ffffffffffffffffffffffffffffffffffffffff021916908373ffffffffffffffffffffffffffffffffffffffff16021790555080600360008054815260200190815260200160002060006101000a81548173ffffffffffffffffffffffffffffffffffffffff021916908373ffffffffffffffffffffffffffffffffffffffff1602179055506105c2600054600161096f90919063ffffffff16565b506005839080600181540180825580915050600190039060005260206000200160009091909190915090805190602001906105fe929190610a29565b507f0db74b926d31db04a7a99ac21cece683972e5f0fd24f02f7bf308568ace64a2d600054604051610630919061101a565b60405180910390a1600660009054906101000a900473ffffffffffffffffffffffffffffffffffffffff1673ffffffffffffffffffffffffffffffffffffffff166352aeb8a26040518163ffffffff1660e01b815260040160206040518083038186803b1580156106a057600080fd5b505afa1580156106b4573d6000803e3d6000fd5b505050506040513d601f19601f820116820180604052508101906106d89190610ba0565b610717576040517f08c379a000000000000000000000000000000000000000000000000000000000815260040161070e90610ffa565b60405180910390fd5b6060600660009054906101000a900473ffffffffffffffffffffffffffffffffffffffff1673ffffffffffffffffffffffffffffffffffffffff1663ef9ebac46040518163ffffffff1660e01b815260040160006040518083038186803b15801561078157600080fd5b505afa158015610795573d6000803e3d6000fd5b505050506040513d6000823e3d601f19601f820116820180604052508101906107be9190610c0a565b9050600660009054906101000a900473ffffffffffffffffffffffffffffffffffffffff1673ffffffffffffffffffffffffffffffffffffffff166367125ed882846040518363ffffffff1660e01b815260040161081d929190610f8a565b600060405180830381600087803b15801561083757600080fd5b505af115801561084b573d6000803e3d6000fd5b50505050600080815480929190600101919050555050505050565b60606005805480602002602001604051908101604052809291908181526020016000905b82821015610946578382906000526020600020018054600181600116156101000203166002900480601f0160208091040260200160405190810160405280929190818152602001828054600181600116156101000203166002900480156109325780601f1061090757610100808354040283529160200191610932565b820191906000526020600020905b81548152906001019060200180831161091557829003601f168201915b50505050508152602001906001019061088a565b50505050905090565b60005481565b6000610967836000018360001b610989565b905092915050565b6000610981836000018360001b6109ac565b905092915050565b600080836001016000848152602001908152602001600020541415905092915050565b60006109b88383610989565b610a11578260000182908060018154018082558091505060019003906000526020600020016000909190919091505582600001805490508360010160008481526020019081526020016000208190555060019050610a16565b600090505b92915050565b610dfc806111c983390190565b828054600181600116156101000203166002900490600052602060002090601f016020900481019282601f10610a6a57805160ff1916838001178555610a98565b82800160010185558215610a98579182015b82811115610a97578251825591602001919060010190610a7c565b5b509050610aa59190610aa9565b5090565b610acb91905b80821115610ac7576000816000905550600101610aaf565b5090565b90565b600081519050610add8161119a565b92915050565b600082601f830112610af457600080fd5b8135610b07610b0282611062565b611035565b91508082526020830160208301858383011115610b2357600080fd5b610b2e838284611147565b50505092915050565b600082601f830112610b4857600080fd5b8151610b5b610b5682611062565b611035565b91508082526020830160208301858383011115610b7757600080fd5b610b82838284611156565b50505092915050565b600081359050610b9a816111b1565b92915050565b600060208284031215610bb257600080fd5b6000610bc084828501610ace565b91505092915050565b600060208284031215610bdb57600080fd5b600082013567ffffffffffffffff811115610bf557600080fd5b610c0184828501610ae3565b91505092915050565b600060208284031215610c1c57600080fd5b600082015167ffffffffffffffff811115610c3657600080fd5b610c4284828501610b37565b91505092915050565b60008060408385031215610c5e57600080fd5b600083013567ffffffffffffffff811115610c7857600080fd5b610c8485828601610ae3565b925050602083013567ffffffffffffffff811115610ca157600080fd5b610cad85828601610ae3565b9150509250929050565b600060208284031215610cc957600080fd5b6000610cd784828501610b8b565b91505092915050565b6000610cec8383610d87565b905092915050565b610cfd816110ff565b82525050565b6000610d0e8261109e565b610d1881856110c1565b935083602082028501610d2a8561108e565b8060005b85811015610d665784840389528151610d478582610ce0565b9450610d52836110b4565b925060208a01995050600181019050610d2e565b50829750879550505050505092915050565b610d8181611111565b82525050565b6000610d92826110a9565b610d9c81856110d2565b9350610dac818560208601611156565b610db581611189565b840191505092915050565b6000610dcb826110a9565b610dd581856110e3565b9350610de5818560208601611156565b610dee81611189565b840191505092915050565b6000610e04826110a9565b610e0e81856110f4565b9350610e1e818560208601611156565b80840191505092915050565b6000610e37601d836110e3565b91507f54686973207265706f7369746f727920646f65736e27742065786973740000006000830152602082019050919050565b6000610e77601b836110e3565b91507f54686973206e616d6520697320616c726561647920696e2075736500000000006000830152602082019050919050565b6000610eb76019836110e3565b91507f596f7520646f6e2774206861766520616e206163636f756e74000000000000006000830152602082019050919050565b610ef38161113d565b82525050565b6000610f058284610df9565b915081905092915050565b6000602082019050610f256000830184610cf4565b92915050565b60006020820190508181036000830152610f458184610d03565b905092915050565b6000602082019050610f626000830184610d78565b92915050565b60006020820190508181036000830152610f828184610dc0565b905092915050565b60006040820190508181036000830152610fa48185610dc0565b9050610fb36020830184610cf4565b9392505050565b60006020820190508181036000830152610fd381610e2a565b9050919050565b60006020820190508181036000830152610ff381610e6a565b9050919050565b6000602082019050818103600083015261101381610eaa565b9050919050565b600060208201905061102f6000830184610eea565b92915050565b6000604051905081810181811067ffffffffffffffff8211171561105857600080fd5b8060405250919050565b600067ffffffffffffffff82111561107957600080fd5b601f19601f8301169050602081019050919050565b6000819050602082019050919050565b600081519050919050565b600081519050919050565b6000602082019050919050565b600082825260208201905092915050565b600082825260208201905092915050565b600082825260208201905092915050565b600081905092915050565b600061110a8261111d565b9050919050565b60008115159050919050565b600073ffffffffffffffffffffffffffffffffffffffff82169050919050565b6000819050919050565b82818337600083830152505050565b60005b83811015611174578082015181840152602081019050611159565b83811115611183576000848401525b50505050565b6000601f19601f8301169050919050565b6111a381611111565b81146111ae57600080fd5b50565b6111ba8161113d565b81146111c557600080fd5b5056fe608060405234801561001057600080fd5b506000329050806000806101000a81548173ffffffffffffffffffffffffffffffffffffffff021916908373ffffffffffffffffffffffffffffffffffffffff1602179055508073ffffffffffffffffffffffffffffffffffffffff16600073ffffffffffffffffffffffffffffffffffffffff167f8be0079c531659141344cd1fd0a4f28419497f9722a3daafe3b4186f6b6457e060405160405180910390a3506001600481905550610d33806100c96000396000f3fe608060405234801561001057600080fd5b50600436106100b45760003560e01c8063af640d0f11610071578063af640d0f146102c8578063b7e03bec146102e6578063c47f0027146103a1578063ca00c7021461045c578063d0e0ba95146104df578063f2fde38b1461050d576100b4565b806306fdde03146100b957806317d7de7c1461013c57806354fd4d50146101bf5780635d1ca631146101dd5780638da5cb5b146101fb578063aa3ec0a914610245575b600080fd5b6100c1610551565b6040518080602001828103825283818151815260200191508051906020019080838360005b838110156101015780820151818401526020810190506100e6565b50505050905090810190601f16801561012e5780820380516001836020036101000a031916815260200191505b509250505060405180910390f35b6101446105ef565b6040518080602001828103825283818151815260200191508051906020019080838360005b83811015610184578082015181840152602081019050610169565b50505050905090810190601f1680156101b15780820380516001836020036101000a031916815260200191505b509250505060405180910390f35b6101c7610691565b6040518082815260200191505060405180910390f35b6101e5610697565b6040518082815260200191505060405180910390f35b6102036106a1565b604051808273ffffffffffffffffffffffffffffffffffffffff1673ffffffffffffffffffffffffffffffffffffffff16815260200191505060405180910390f35b61024d6106ca565b6040518080602001828103825283818151815260200191508051906020019080838360005b8381101561028d578082015181840152602081019050610272565b50505050905090810190601f1680156102ba5780820380516001836020036101000a031916815260200191505b509250505060405180910390f35b6102d0610768565b6040518082815260200191505060405180910390f35b61039f600480360360208110156102fc57600080fd5b810190808035906020019064010000000081111561031957600080fd5b82018360208201111561032b57600080fd5b8035906020019184600183028401116401000000008311171561034d57600080fd5b91908080601f016020809104026020016040519081016040528093929190818152602001838380828437600081840152601f19601f82011690508083019250505050505050919291929050505061076e565b005b61045a600480360360208110156103b757600080fd5b81019080803590602001906401000000008111156103d457600080fd5b8201836020820111156103e657600080fd5b8035906020019184600183028401116401000000008311171561040857600080fd5b91908080601f016020809104026020016040519081016040528093929190818152602001838380828437600081840152601f19601f8201169050808301925050505050505091929192905050506108bb565b005b610464610930565b6040518080602001828103825283818151815260200191508051906020019080838360005b838110156104a4578082015181840152602081019050610489565b50505050905090810190601f1680156104d15780820380516001836020036101000a031916815260200191505b509250505060405180910390f35b61050b600480360360208110156104f557600080fd5b81019080803590602001909291905050506109d2565b005b61054f6004803603602081101561052357600080fd5b81019080803573ffffffffffffffffffffffffffffffffffffffff1690602001909291905050506109dc565b005b60028054600181600116156101000203166002900480601f0160208091040260200160405190810160405280929190818152602001828054600181600116156101000203166002900480156105e75780601f106105bc576101008083540402835291602001916105e7565b820191906000526020600020905b8154815290600101906020018083116105ca57829003601f168201915b505050505081565b606060028054600181600116156101000203166002900480601f0160208091040260200160405190810160405280929190818152602001828054600181600116156101000203166002900480156106875780601f1061065c57610100808354040283529160200191610687565b820191906000526020600020905b81548152906001019060200180831161066a57829003601f168201915b5050505050905090565b60045481565b6000600354905090565b60008060009054906101000a900473ffffffffffffffffffffffffffffffffffffffff16905090565b60018054600181600116156101000203166002900480601f0160208091040260200160405190810160405280929190818152602001828054600181600116156101000203166002900480156107605780601f1061073557610100808354040283529160200191610760565b820191906000526020600020905b81548152906001019060200180831161074357829003601f168201915b505050505081565b60035481565b6000815114156107c9576040517f08c379a0000000000000000000000000000000000000000000000000000000008152600401808060200182810382526028815260200180610cd66028913960400191505060405180910390fd5b8060056000600454815260200190815260200160002090805190602001906107f2929190610be2565b508060019080519060200190610809929190610be2565b507ffd914cf1fcc705ff7237806e3702e2463da45f054b3aa345985b20093b6d2923816040518080602001828103825283818151815260200191508051906020019080838360005b8381101561086c578082015181840152602081019050610851565b50505050905090810190601f1680156108995780820380516001836020036101000a031916815260200191505b509250505060405180910390a160046000815480929190600101919050555050565b600081511415610916576040517f08c379a0000000000000000000000000000000000000000000000000000000008152600401808060200182810382526028815260200180610cae6028913960400191505060405180910390fd5b806002908051906020019061092c929190610be2565b5050565b606060018054600181600116156101000203166002900480601f0160208091040260200160405190810160405280929190818152602001828054600181600116156101000203166002900480156109c85780601f1061099d576101008083540402835291602001916109c8565b820191906000526020600020905b8154815290600101906020018083116109ab57829003601f168201915b5050505050905090565b8060038190555050565b3373ffffffffffffffffffffffffffffffffffffffff166000809054906101000a900473ffffffffffffffffffffffffffffffffffffffff1673ffffffffffffffffffffffffffffffffffffffff1614610a9e576040517f08c379a00000000000000000000000000000000000000000000000000000000081526004018080602001828103825260208152602001807f4f776e61626c653a2063616c6c6572206973206e6f7420746865206f776e657281525060200191505060405180910390fd5b600073ffffffffffffffffffffffffffffffffffffffff168173ffffffffffffffffffffffffffffffffffffffff161415610b24576040517f08c379a0000000000000000000000000000000000000000000000000000000008152600401808060200182810382526026815260200180610c886026913960400191505060405180910390fd5b8073ffffffffffffffffffffffffffffffffffffffff166000809054906101000a900473ffffffffffffffffffffffffffffffffffffffff1673ffffffffffffffffffffffffffffffffffffffff167f8be0079c531659141344cd1fd0a4f28419497f9722a3daafe3b4186f6b6457e060405160405180910390a3806000806101000a81548173ffffffffffffffffffffffffffffffffffffffff021916908373ffffffffffffffffffffffffffffffffffffffff16021790555050565b828054600181600116156101000203166002900490600052602060002090601f016020900481019282601f10610c2357805160ff1916838001178555610c51565b82800160010185558215610c51579182015b82811115610c50578251825591602001919060010190610c35565b5b509050610c5e9190610c62565b5090565b610c8491905b80821115610c80576000816000905550600101610c68565b5090565b9056fe4f776e61626c653a206e6577206f776e657220697320746865207a65726f2061646472657373506c656173652070726f766964652061206e616d6520666f7220746865207265706f7369746f7279506c656173652070726f7669646520612063696420666f722074686973207265706f7369746f7279a264697066735822122014df1a9eb4f6c65ec82ffeabc9b5e8b0e0e4f5f970063a1e0f2ae4353481a9cc64736f6c63430006080033a2646970667358221220abee154985b59676fe5891f9b3349d3eb6585151be6e0dce1075a979dce6e24a64736f6c63430006080033",
  "immutableReferences": {},
  "source": "// SPDX-License-Identifier: MIT\r\npragma solidity >=0.6.0;\r\npragma experimental ABIEncoderV2;\r\n\r\nimport './Repository.sol';\r\nimport \"../node_modules/@openzeppelin/contracts/utils/EnumerableSet.sol\";\r\nimport './UserService.sol';\r\n\r\ncontract RepositoryService {\r\n    using EnumerableSet for EnumerableSet.UintSet;\r\n    uint256 public currentId;\r\n    EnumerableSet.UintSet repoids;\r\n    mapping(uint256 => address) idToRepository;\r\n\r\n    event RepositoryAdded(uint256 id);\r\n\r\n    mapping(string => address) nameToRepository;\r\n    string[] names;\r\n\r\n    UserService userServiceContract;\r\n\r\n    constructor(address _UserService) public {\r\n        currentId = 1;\r\n        userServiceContract = UserService(_UserService);\r\n    }\r\n\r\n    //May want to change this to n-Names\r\n    function GetNames() public view returns(string[] memory) {\r\n        return names;\r\n    }\r\n\r\n    function CreateRepository(string memory name, string memory cid) public {\r\n        require(!CheckIfRepoExists(name),\"This name is already in use\");\r\n\r\n        Repository repo = new Repository();\r\n        repo.setName(name);\r\n        repo.setId(currentId);\r\n        repo.setCid(cid);\r\n\r\n        nameToRepository[name] = address(repo);\r\n        idToRepository[currentId] = address(repo);\r\n\r\n        repoids.add(currentId);\r\n        names.push(name);\r\n\r\n        emit RepositoryAdded(currentId);\r\n\r\n        require(userServiceContract.TXUserHasAccount(),\"You don't have an account\");\r\n\r\n        string memory username = userServiceContract.GetUsernameFromTXUser();\r\n        userServiceContract.addRepositoryToUser(username,address(repo));\r\n\r\n        currentId++;\r\n    }\r\n\r\n    function getRepository(uint256 id) public view returns(address) {\r\n        require(CheckIfRepoExists(id),\"This repository doesn't exist\");\r\n        return idToRepository[id];\r\n    }\r\n\r\n    function getRepository(string memory name) public view returns(address) {\r\n        require(CheckIfRepoExists(name),\"This repository doesn't exist\");\r\n        return nameToRepository[name];\r\n    }\r\n\r\n    function CheckIfRepoExists(uint256 id) public view returns(bool) {\r\n        return repoids.contains(id);\r\n    }\r\n\r\n    function CheckIfRepoExists(string memory name) public view returns(bool) {\r\n        return nameToRepository[name] != address(0);\r\n    }\r\n}",
  "sourcePath": "C:\\Users\\gebruiker\\Desktop\\Studies\\Bachelor proef\\Bachelorproef\\Demo\\Demo\\Contracts\\contracts\\RepositoryService.sol",
  "compiler": {
    "name": "solc",
    "version": "0.6.8+commit.0bbfe453.Emscripten.clang"
  },
  "schemaVersion": "3.1.0",
  "updatedAt": "2020-05-26T16:37:14.396Z",
  "devdoc": {
    "methods": {}
  },
  "userdoc": {
    "methods": {}
  }
}