{
  "contractName": "RepositoryService",
  "abi": [
    {
      "inputs": [],
      "stateMutability": "nonpayable",
      "type": "constructor"
    },
    {
      "anonymous": false,
      "inputs": [
        {
          "indexed": false,
          "internalType": "uint256",
          "name": "id",
          "type": "uint256"
        }
      ],
      "name": "RepositoryAdded",
      "type": "event"
    },
    {
      "inputs": [],
      "name": "currentId",
      "outputs": [
        {
          "internalType": "uint256",
          "name": "",
          "type": "uint256"
        }
      ],
      "stateMutability": "view",
      "type": "function"
    },
    {
      "inputs": [
        {
          "internalType": "string",
          "name": "name",
          "type": "string"
        }
      ],
      "name": "CreateRepository",
      "outputs": [],
      "stateMutability": "nonpayable",
      "type": "function"
    },
    {
      "inputs": [
        {
          "internalType": "string",
          "name": "name",
          "type": "string"
        }
      ],
      "name": "CheckIfRepoExists",
      "outputs": [
        {
          "internalType": "bool",
          "name": "",
          "type": "bool"
        }
      ],
      "stateMutability": "view",
      "type": "function"
    },
    {
      "inputs": [
        {
          "internalType": "uint256",
          "name": "id",
          "type": "uint256"
        }
      ],
      "name": "CheckIfRepoExists",
      "outputs": [
        {
          "internalType": "bool",
          "name": "",
          "type": "bool"
        }
      ],
      "stateMutability": "view",
      "type": "function"
    }
  ],
  "bytecode": "0x608060405234801561001057600080fd5b5060016000819055506112d8806100286000396000f3fe608060405234801561001057600080fd5b506004361061004c5760003560e01c8063241d11ee146100515780635cad754f146101245780639c6f4a3d146101df578063e00dd16114610225575b600080fd5b61010a6004803603602081101561006757600080fd5b810190808035906020019064010000000081111561008457600080fd5b82018360208201111561009657600080fd5b803590602001918460018302840111640100000000831117156100b857600080fd5b91908080601f016020809104026020016040519081016040528093929190818152602001838380828437600081840152601f19601f820116905080830192505050505050509192919290505050610243565b604051808215151515815260200191505060405180910390f35b6101dd6004803603602081101561013a57600080fd5b810190808035906020019064010000000081111561015757600080fd5b82018360208201111561016957600080fd5b8035906020019184600183028401116401000000008311171561018b57600080fd5b91908080601f016020809104026020016040519081016040528093929190818152602001838380828437600081840152601f19601f820116905080830192505050505050509192919290505050610359565b005b61020b600480360360208110156101f557600080fd5b8101908080359060200190929190505050610673565b604051808215151515815260200191505060405180910390f35b61022d610690565b6040518082815260200191505060405180910390f35b6000806004836040518082805190602001908083835b6020831061027c5780518252602082019150602081019050602083039250610259565b6001836020036101000a038019825116818451168082178552505050505050905001915050908152602001604051809103902060009054906101000a900473ffffffffffffffffffffffffffffffffffffffff1673ffffffffffffffffffffffffffffffffffffffff1663af640d0f6040518163ffffffff1660e01b815260040160206040518083038186803b15801561031557600080fd5b505afa158015610329573d6000803e3d6000fd5b505050506040513d602081101561033f57600080fd5b810190808051906020019092919050505014159050919050565b6000815114156103b4576040517f08c379a000000000000000000000000000000000000000000000000000000000815260040180806020018281038252602881526020018061127b6028913960400191505060405180910390fd5b6103bd81610243565b15610430576040517f08c379a000000000000000000000000000000000000000000000000000000000815260040180806020018281038252601b8152602001807f54686973206e616d6520697320616c726561647920696e20757365000000000081525060200191505060405180910390fd5b6000816000546040516104429061075d565b8080602001838152602001828103825284818151815260200191508051906020019080838360005b8381101561048557808201518184015260208101905061046a565b50505050905090810190601f1680156104b25780820380516001836020036101000a031916815260200191505b509350505050604051809103906000f0801580156104d4573d6000803e3d6000fd5b509050806004836040518082805190602001908083835b6020831061050e57805182526020820191506020810190506020830392506104eb565b6001836020036101000a038019825116818451168082178552505050505050905001915050908152602001604051809103902060006101000a81548173ffffffffffffffffffffffffffffffffffffffff021916908373ffffffffffffffffffffffffffffffffffffffff16021790555080600360008054815260200190815260200160002060006101000a81548173ffffffffffffffffffffffffffffffffffffffff021916908373ffffffffffffffffffffffffffffffffffffffff1602179055506105e8600054600161069690919063ffffffff16565b5060058290806001815401808255809150506001900390600052602060002001600090919091909150908051906020019061062492919061076a565b507f0db74b926d31db04a7a99ac21cece683972e5f0fd24f02f7bf308568ace64a2d6000546040518082815260200191505060405180910390a160008081548092919060010191905055505050565b60006106898260016106b090919063ffffffff16565b9050919050565b60005481565b60006106a8836000018360001b6106ca565b905092915050565b60006106c2836000018360001b61073a565b905092915050565b60006106d6838361073a565b61072f578260000182908060018154018082558091505060019003906000526020600020016000909190919091505582600001805490508360010160008481526020019081526020016000208190555060019050610734565b600090505b92915050565b600080836001016000848152602001908152602001600020541415905092915050565b610a6b8061081083390190565b828054600181600116156101000203166002900490600052602060002090601f016020900481019282601f106107ab57805160ff19168380011785556107d9565b828001600101855582156107d9579182015b828111156107d85782518255916020019190600101906107bd565b5b5090506107e691906107ea565b5090565b61080c91905b808211156108085760008160009055506001016107f0565b5090565b9056fe608060405234801561001057600080fd5b50604051610a6b380380610a6b8339818101604052604081101561003357600080fd5b810190808051604051939291908464010000000082111561005357600080fd5b8382019150602082018581111561006957600080fd5b825186600182028301116401000000008211171561008657600080fd5b8083526020830192505050908051906020019080838360005b838110156100ba57808201518184015260208101905061009f565b50505050905090810190601f1680156100e75780820380516001836020036101000a031916815260200191505b5060405260200180519060200190929190505050600061010b6101ce60201b60201c565b9050806000806101000a81548173ffffffffffffffffffffffffffffffffffffffff021916908373ffffffffffffffffffffffffffffffffffffffff1602179055508073ffffffffffffffffffffffffffffffffffffffff16600073ffffffffffffffffffffffffffffffffffffffff167f8be0079c531659141344cd1fd0a4f28419497f9722a3daafe3b4186f6b6457e060405160405180910390a35081600290805190602001906101bf9291906101d6565b5080600381905550505061027b565b600033905090565b828054600181600116156101000203166002900490600052602060002090601f016020900481019282601f1061021757805160ff1916838001178555610245565b82800160010185558215610245579182015b82811115610244578251825591602001919060010190610229565b5b5090506102529190610256565b5090565b61027891905b8082111561027457600081600090555060010161025c565b5090565b90565b6107e18061028a6000396000f3fe608060405234801561001057600080fd5b506004361061007d5760003560e01c80638da5cb5b1161005b5780638da5cb5b1461013b578063aa3ec0a914610185578063af640d0f14610208578063f2fde38b146102265761007d565b806306fdde031461008257806362a87ad514610105578063715018a614610131575b600080fd5b61008a61026a565b6040518080602001828103825283818151815260200191508051906020019080838360005b838110156100ca5780820151818401526020810190506100af565b50505050905090810190601f1680156100f75780820380516001836020036101000a031916815260200191505b509250505060405180910390f35b61010d610308565b6040518082600181111561011d57fe5b60ff16815260200191505060405180910390f35b61013961031b565b005b6101436104a3565b604051808273ffffffffffffffffffffffffffffffffffffffff1673ffffffffffffffffffffffffffffffffffffffff16815260200191505060405180910390f35b61018d6104cc565b6040518080602001828103825283818151815260200191508051906020019080838360005b838110156101cd5780820151818401526020810190506101b2565b50505050905090810190601f1680156101fa5780820380516001836020036101000a031916815260200191505b509250505060405180910390f35b61021061056a565b6040518082815260200191505060405180910390f35b6102686004803603602081101561023c57600080fd5b81019080803573ffffffffffffffffffffffffffffffffffffffff169060200190929190505050610570565b005b60028054600181600116156101000203166002900480601f0160208091040260200160405190810160405280929190818152602001828054600181600116156101000203166002900480156103005780601f106102d557610100808354040283529160200191610300565b820191906000526020600020905b8154815290600101906020018083116102e357829003601f168201915b505050505081565b600460009054906101000a900460ff1681565b61032361077d565b73ffffffffffffffffffffffffffffffffffffffff166000809054906101000a900473ffffffffffffffffffffffffffffffffffffffff1673ffffffffffffffffffffffffffffffffffffffff16146103e4576040517f08c379a00000000000000000000000000000000000000000000000000000000081526004018080602001828103825260208152602001807f4f776e61626c653a2063616c6c6572206973206e6f7420746865206f776e657281525060200191505060405180910390fd5b600073ffffffffffffffffffffffffffffffffffffffff166000809054906101000a900473ffffffffffffffffffffffffffffffffffffffff1673ffffffffffffffffffffffffffffffffffffffff167f8be0079c531659141344cd1fd0a4f28419497f9722a3daafe3b4186f6b6457e060405160405180910390a360008060006101000a81548173ffffffffffffffffffffffffffffffffffffffff021916908373ffffffffffffffffffffffffffffffffffffffff160217905550565b60008060009054906101000a900473ffffffffffffffffffffffffffffffffffffffff16905090565b60018054600181600116156101000203166002900480601f0160208091040260200160405190810160405280929190818152602001828054600181600116156101000203166002900480156105625780601f1061053757610100808354040283529160200191610562565b820191906000526020600020905b81548152906001019060200180831161054557829003601f168201915b505050505081565b60035481565b61057861077d565b73ffffffffffffffffffffffffffffffffffffffff166000809054906101000a900473ffffffffffffffffffffffffffffffffffffffff1673ffffffffffffffffffffffffffffffffffffffff1614610639576040517f08c379a00000000000000000000000000000000000000000000000000000000081526004018080602001828103825260208152602001807f4f776e61626c653a2063616c6c6572206973206e6f7420746865206f776e657281525060200191505060405180910390fd5b600073ffffffffffffffffffffffffffffffffffffffff168173ffffffffffffffffffffffffffffffffffffffff1614156106bf576040517f08c379a00000000000000000000000000000000000000000000000000000000081526004018080602001828103825260268152602001806107866026913960400191505060405180910390fd5b8073ffffffffffffffffffffffffffffffffffffffff166000809054906101000a900473ffffffffffffffffffffffffffffffffffffffff1673ffffffffffffffffffffffffffffffffffffffff167f8be0079c531659141344cd1fd0a4f28419497f9722a3daafe3b4186f6b6457e060405160405180910390a3806000806101000a81548173ffffffffffffffffffffffffffffffffffffffff021916908373ffffffffffffffffffffffffffffffffffffffff16021790555050565b60003390509056fe4f776e61626c653a206e6577206f776e657220697320746865207a65726f2061646472657373a26469706673582212206e9d24c90a20c7e0aed80637c24adfe5b074d0b0169b92ae657b2cef76ff0a3964736f6c63430006080033506c656173652070726f766964652061206e616d6520666f7220746865207265706f7369746f7279a2646970667358221220623f21f6358e6c212a61b5648fef206c474132a5707b4df8f7f7ec343730719d64736f6c63430006080033",
  "immutableReferences": {},
  "source": "// SPDX-License-Identifier: MIT\r\npragma solidity >=0.6.0;\r\n\r\nimport './Repository.sol';\r\nimport \"../node_modules/@openzeppelin/contracts/utils/EnumerableSet.sol\";\r\n\r\ncontract RepositoryService {\r\n    using EnumerableSet for EnumerableSet.UintSet;\r\n    uint256 public currentId;\r\n    EnumerableSet.UintSet repoids;\r\n    mapping(uint256 => Repository) idToRepository;\r\n\r\n    event RepositoryAdded(uint256 id);\r\n\r\n    mapping(string => Repository) nameToRepository;\r\n    string[] names;\r\n\r\n    constructor() public {\r\n        currentId = 1;\r\n    }\r\n\r\n    function CreateRepository(string memory name) public {\r\n        require(bytes(name).length != 0,\"Please provide a name for the repository\");\r\n        require(!CheckIfRepoExists(name),\"This name is already in use\");\r\n\r\n        Repository repo = new Repository(name, currentId);\r\n\r\n        nameToRepository[name] = repo;\r\n        idToRepository[currentId] = repo;\r\n\r\n        repoids.add(currentId);\r\n        names.push(name);\r\n\r\n        emit RepositoryAdded(currentId);\r\n        currentId++;\r\n    }\r\n\r\n    function CheckIfRepoExists(uint256 id) public view returns(bool) {\r\n        return repoids.contains(id);\r\n    }\r\n\r\n    function CheckIfRepoExists(string memory name) public view returns(bool) {\r\n        return nameToRepository[name].id() != 0;\r\n    }\r\n}",
  "sourcePath": "C:\\Users\\gebruiker\\Desktop\\Studies\\Bachelor proef\\Bachelorproef\\Demo\\Demo\\Contracts\\contracts\\RepositoryService.sol",
  "compiler": {
    "name": "solc",
    "version": "0.6.8+commit.0bbfe453.Emscripten.clang"
  },
  "schemaVersion": "3.1.0",
  "updatedAt": "2020-05-24T10:27:10.406Z",
  "devdoc": {
    "methods": {}
  },
  "userdoc": {
    "methods": {}
  }
}