{
  "contractName": "RepositoryService",
  "abi": [
    {
      "inputs": [
        {
          "internalType": "address",
          "name": "_UserService",
          "type": "address"
        }
      ],
      "stateMutability": "nonpayable",
      "type": "constructor"
    },
    {
      "anonymous": false,
      "inputs": [
        {
          "indexed": false,
          "internalType": "uint256",
          "name": "id",
          "type": "uint256"
        }
      ],
      "name": "RepositoryAdded",
      "type": "event"
    },
    {
      "inputs": [],
      "name": "currentId",
      "outputs": [
        {
          "internalType": "uint256",
          "name": "",
          "type": "uint256"
        }
      ],
      "stateMutability": "view",
      "type": "function"
    },
    {
      "inputs": [],
      "name": "GetNames",
      "outputs": [
        {
          "internalType": "string[]",
          "name": "",
          "type": "string[]"
        }
      ],
      "stateMutability": "view",
      "type": "function"
    },
    {
      "inputs": [
        {
          "internalType": "string",
          "name": "name",
          "type": "string"
        }
      ],
      "name": "CreateRepository",
      "outputs": [],
      "stateMutability": "nonpayable",
      "type": "function"
    },
    {
      "inputs": [
        {
          "internalType": "string",
          "name": "name",
          "type": "string"
        }
      ],
      "name": "getRepository",
      "outputs": [
        {
          "internalType": "address",
          "name": "",
          "type": "address"
        }
      ],
      "stateMutability": "view",
      "type": "function"
    },
    {
      "inputs": [
        {
          "internalType": "uint256",
          "name": "id",
          "type": "uint256"
        }
      ],
      "name": "getRepository",
      "outputs": [
        {
          "internalType": "address",
          "name": "",
          "type": "address"
        }
      ],
      "stateMutability": "view",
      "type": "function"
    },
    {
      "inputs": [
        {
          "internalType": "string",
          "name": "name",
          "type": "string"
        }
      ],
      "name": "CheckIfRepoExists",
      "outputs": [
        {
          "internalType": "bool",
          "name": "",
          "type": "bool"
        }
      ],
      "stateMutability": "view",
      "type": "function"
    },
    {
      "inputs": [
        {
          "internalType": "uint256",
          "name": "id",
          "type": "uint256"
        }
      ],
      "name": "CheckIfRepoExists",
      "outputs": [
        {
          "internalType": "bool",
          "name": "",
          "type": "bool"
        }
      ],
      "stateMutability": "view",
      "type": "function"
    }
  ],
  "bytecode": "0x608060405234801561001057600080fd5b506040516117ec3803806117ec83398181016040528101906100329190610096565b600160008190555080600660006101000a81548173ffffffffffffffffffffffffffffffffffffffff021916908373ffffffffffffffffffffffffffffffffffffffff16021790555050610108565b600081519050610090816100f1565b92915050565b6000602082840312156100a857600080fd5b60006100b684828501610081565b91505092915050565b60006100ca826100d1565b9050919050565b600073ffffffffffffffffffffffffffffffffffffffff82169050919050565b6100fa816100bf565b811461010557600080fd5b50565b6116d5806101176000396000f3fe608060405234801561001057600080fd5b506004361061007d5760003560e01c80635cad754f1161005b5780635cad754f146101125780639c6f4a3d1461012e578063c4cc75311461015e578063e00dd1611461017c5761007d565b806322dd1a1e14610082578063241d11ee146100b25780635be08933146100e2575b600080fd5b61009c600480360381019061009791906108b3565b61019a565b6040516100a99190610b0d565b60405180910390f35b6100cc60048036038101906100c791906108b3565b61022a565b6040516100d99190610b4a565b60405180910390f35b6100fc60048036038101906100f791906108f4565b6102a1565b6040516101099190610b0d565b60405180910390f35b61012c600480360381019061012791906108b3565b610326565b005b610148600480360381019061014391906108f4565b6105c5565b6040516101559190610b4a565b60405180910390f35b6101666105e2565b6040516101739190610b28565b60405180910390f35b6101846106cb565b6040516101919190610bc7565b60405180910390f35b60006101a58261022a565b6101e4576040517f08c379a00000000000000000000000000000000000000000000000000000000081526004016101db90610b87565b60405180910390fd5b6004826040516101f49190610af6565b908152602001604051809103902060009054906101000a900473ffffffffffffffffffffffffffffffffffffffff169050919050565b60008073ffffffffffffffffffffffffffffffffffffffff166004836040516102539190610af6565b908152602001604051809103902060009054906101000a900473ffffffffffffffffffffffffffffffffffffffff1673ffffffffffffffffffffffffffffffffffffffff1614159050919050565b60006102ac826105c5565b6102eb576040517f08c379a00000000000000000000000000000000000000000000000000000000081526004016102e290610b87565b60405180910390fd5b6003600083815260200190815260200160002060009054906101000a900473ffffffffffffffffffffffffffffffffffffffff169050919050565b61032f8161022a565b1561036f576040517f08c379a000000000000000000000000000000000000000000000000000000000815260040161036690610ba7565b60405180910390fd5b600060405161037d90610798565b604051809103906000f080158015610399573d6000803e3d6000fd5b5090508073ffffffffffffffffffffffffffffffffffffffff1663c47f0027836040518263ffffffff1660e01b81526004016103d59190610b65565b600060405180830381600087803b1580156103ef57600080fd5b505af1158015610403573d6000803e3d6000fd5b505050508073ffffffffffffffffffffffffffffffffffffffff1663d0e0ba956000546040518263ffffffff1660e01b81526004016104429190610bc7565b600060405180830381600087803b15801561045c57600080fd5b505af1158015610470573d6000803e3d6000fd5b50505050806004836040516104859190610af6565b908152602001604051809103902060006101000a81548173ffffffffffffffffffffffffffffffffffffffff021916908373ffffffffffffffffffffffffffffffffffffffff16021790555080600360008054815260200190815260200160002060006101000a81548173ffffffffffffffffffffffffffffffffffffffff021916908373ffffffffffffffffffffffffffffffffffffffff16021790555061053a60005460016106d190919063ffffffff16565b506005829080600181540180825580915050600190039060005260206000200160009091909190915090805190602001906105769291906107a5565b507f0db74b926d31db04a7a99ac21cece683972e5f0fd24f02f7bf308568ace64a2d6000546040516105a89190610bc7565b60405180910390a160008081548092919060010191905055505050565b60006105db8260016106eb90919063ffffffff16565b9050919050565b60606005805480602002602001604051908101604052809291908181526020016000905b828210156106c2578382906000526020600020018054600181600116156101000203166002900480601f0160208091040260200160405190810160405280929190818152602001828054600181600116156101000203166002900480156106ae5780601f10610683576101008083540402835291602001916106ae565b820191906000526020600020905b81548152906001019060200180831161069157829003601f168201915b505050505081526020019060010190610606565b50505050905090565b60005481565b60006106e3836000018360001b610705565b905092915050565b60006106fd836000018360001b610775565b905092915050565b60006107118383610775565b61076a57826000018290806001815401808255809150506001900390600052602060002001600090919091909150558260000180549050836001016000848152602001908152602001600020819055506001905061076f565b600090505b92915050565b600080836001016000848152602001908152602001600020541415905092915050565b61094180610d5f83390190565b828054600181600116156101000203166002900490600052602060002090601f016020900481019282601f106107e657805160ff1916838001178555610814565b82800160010185558215610814579182015b828111156108135782518255916020019190600101906107f8565b5b5090506108219190610825565b5090565b61084791905b8082111561084357600081600090555060010161082b565b5090565b90565b600082601f83011261085b57600080fd5b813561086e61086982610c0f565b610be2565b9150808252602083016020830185838301111561088a57600080fd5b610895838284610cf4565b50505092915050565b6000813590506108ad81610d47565b92915050565b6000602082840312156108c557600080fd5b600082013567ffffffffffffffff8111156108df57600080fd5b6108eb8482850161084a565b91505092915050565b60006020828403121561090657600080fd5b60006109148482850161089e565b91505092915050565b600061092983836109c4565b905092915050565b61093a81610cac565b82525050565b600061094b82610c4b565b6109558185610c6e565b93508360208202850161096785610c3b565b8060005b858110156109a35784840389528151610984858261091d565b945061098f83610c61565b925060208a0199505060018101905061096b565b50829750879550505050505092915050565b6109be81610cbe565b82525050565b60006109cf82610c56565b6109d98185610c7f565b93506109e9818560208601610d03565b6109f281610d36565b840191505092915050565b6000610a0882610c56565b610a128185610c90565b9350610a22818560208601610d03565b610a2b81610d36565b840191505092915050565b6000610a4182610c56565b610a4b8185610ca1565b9350610a5b818560208601610d03565b80840191505092915050565b6000610a74601d83610c90565b91507f54686973207265706f7369746f727920646f65736e27742065786973740000006000830152602082019050919050565b6000610ab4601b83610c90565b91507f54686973206e616d6520697320616c726561647920696e2075736500000000006000830152602082019050919050565b610af081610cea565b82525050565b6000610b028284610a36565b915081905092915050565b6000602082019050610b226000830184610931565b92915050565b60006020820190508181036000830152610b428184610940565b905092915050565b6000602082019050610b5f60008301846109b5565b92915050565b60006020820190508181036000830152610b7f81846109fd565b905092915050565b60006020820190508181036000830152610ba081610a67565b9050919050565b60006020820190508181036000830152610bc081610aa7565b9050919050565b6000602082019050610bdc6000830184610ae7565b92915050565b6000604051905081810181811067ffffffffffffffff82111715610c0557600080fd5b8060405250919050565b600067ffffffffffffffff821115610c2657600080fd5b601f19601f8301169050602081019050919050565b6000819050602082019050919050565b600081519050919050565b600081519050919050565b6000602082019050919050565b600082825260208201905092915050565b600082825260208201905092915050565b600082825260208201905092915050565b600081905092915050565b6000610cb782610cca565b9050919050565b60008115159050919050565b600073ffffffffffffffffffffffffffffffffffffffff82169050919050565b6000819050919050565b82818337600083830152505050565b60005b83811015610d21578082015181840152602081019050610d06565b83811115610d30576000848401525b50505050565b6000601f19601f8301169050919050565b610d5081610cea565b8114610d5b57600080fd5b5056fe608060405234801561001057600080fd5b506000329050806000806101000a81548173ffffffffffffffffffffffffffffffffffffffff021916908373ffffffffffffffffffffffffffffffffffffffff1602179055508073ffffffffffffffffffffffffffffffffffffffff16600073ffffffffffffffffffffffffffffffffffffffff167f8be0079c531659141344cd1fd0a4f28419497f9722a3daafe3b4186f6b6457e060405160405180910390a350610880806100c16000396000f3fe608060405234801561001057600080fd5b50600436106100885760003560e01c8063af640d0f1161005b578063af640d0f14610209578063c47f002714610227578063d0e0ba95146102e2578063f2fde38b1461031057610088565b806306fdde031461008d57806362a87ad5146101105780638da5cb5b1461013c578063aa3ec0a914610186575b600080fd5b610095610354565b6040518080602001828103825283818151815260200191508051906020019080838360005b838110156100d55780820151818401526020810190506100ba565b50505050905090810190601f1680156101025780820380516001836020036101000a031916815260200191505b509250505060405180910390f35b6101186103f2565b6040518082600181111561012857fe5b60ff16815260200191505060405180910390f35b610144610405565b604051808273ffffffffffffffffffffffffffffffffffffffff1673ffffffffffffffffffffffffffffffffffffffff16815260200191505060405180910390f35b61018e61042e565b6040518080602001828103825283818151815260200191508051906020019080838360005b838110156101ce5780820151818401526020810190506101b3565b50505050905090810190601f1680156101fb5780820380516001836020036101000a031916815260200191505b509250505060405180910390f35b6102116104cc565b6040518082815260200191505060405180910390f35b6102e06004803603602081101561023d57600080fd5b810190808035906020019064010000000081111561025a57600080fd5b82018360208201111561026c57600080fd5b8035906020019184600183028401116401000000008311171561028e57600080fd5b91908080601f016020809104026020016040519081016040528093929190818152602001838380828437600081840152601f19601f8201169050808301925050505050505091929192905050506104d2565b005b61030e600480360360208110156102f857600080fd5b8101908080359060200190929190505050610547565b005b6103526004803603602081101561032657600080fd5b81019080803573ffffffffffffffffffffffffffffffffffffffff169060200190929190505050610551565b005b60028054600181600116156101000203166002900480601f0160208091040260200160405190810160405280929190818152602001828054600181600116156101000203166002900480156103ea5780601f106103bf576101008083540402835291602001916103ea565b820191906000526020600020905b8154815290600101906020018083116103cd57829003601f168201915b505050505081565b600460009054906101000a900460ff1681565b60008060009054906101000a900473ffffffffffffffffffffffffffffffffffffffff16905090565b60018054600181600116156101000203166002900480601f0160208091040260200160405190810160405280929190818152602001828054600181600116156101000203166002900480156104c45780601f10610499576101008083540402835291602001916104c4565b820191906000526020600020905b8154815290600101906020018083116104a757829003601f168201915b505050505081565b60035481565b60008151141561052d576040517f08c379a00000000000000000000000000000000000000000000000000000000081526004018080602001828103825260288152602001806108236028913960400191505060405180910390fd5b8060029080519060200190610543929190610757565b5050565b8060038190555050565b3373ffffffffffffffffffffffffffffffffffffffff166000809054906101000a900473ffffffffffffffffffffffffffffffffffffffff1673ffffffffffffffffffffffffffffffffffffffff1614610613576040517f08c379a00000000000000000000000000000000000000000000000000000000081526004018080602001828103825260208152602001807f4f776e61626c653a2063616c6c6572206973206e6f7420746865206f776e657281525060200191505060405180910390fd5b600073ffffffffffffffffffffffffffffffffffffffff168173ffffffffffffffffffffffffffffffffffffffff161415610699576040517f08c379a00000000000000000000000000000000000000000000000000000000081526004018080602001828103825260268152602001806107fd6026913960400191505060405180910390fd5b8073ffffffffffffffffffffffffffffffffffffffff166000809054906101000a900473ffffffffffffffffffffffffffffffffffffffff1673ffffffffffffffffffffffffffffffffffffffff167f8be0079c531659141344cd1fd0a4f28419497f9722a3daafe3b4186f6b6457e060405160405180910390a3806000806101000a81548173ffffffffffffffffffffffffffffffffffffffff021916908373ffffffffffffffffffffffffffffffffffffffff16021790555050565b828054600181600116156101000203166002900490600052602060002090601f016020900481019282601f1061079857805160ff19168380011785556107c6565b828001600101855582156107c6579182015b828111156107c55782518255916020019190600101906107aa565b5b5090506107d391906107d7565b5090565b6107f991905b808211156107f55760008160009055506001016107dd565b5090565b9056fe4f776e61626c653a206e6577206f776e657220697320746865207a65726f2061646472657373506c656173652070726f766964652061206e616d6520666f7220746865207265706f7369746f7279a264697066735822122093295fb70be45a010bbdc249b1a5622361338555cd426ad5d66827271a1a4e6364736f6c63430006080033a2646970667358221220f8d95e70ec8cd5debfa6e11fd455a6db3fe8e2cc8b3753b44e1479f516e1250664736f6c63430006080033",
  "immutableReferences": {},
  "source": "// SPDX-License-Identifier: MIT\r\npragma solidity >=0.6.0;\r\npragma experimental ABIEncoderV2;\r\n\r\nimport './Repository.sol';\r\nimport \"../node_modules/@openzeppelin/contracts/utils/EnumerableSet.sol\";\r\nimport './UserService.sol';\r\n\r\ncontract RepositoryService {\r\n    using EnumerableSet for EnumerableSet.UintSet;\r\n    uint256 public currentId;\r\n    EnumerableSet.UintSet repoids;\r\n    mapping(uint256 => address) idToRepository;\r\n\r\n    event RepositoryAdded(uint256 id);\r\n\r\n    mapping(string => address) nameToRepository;\r\n    string[] names;\r\n\r\n    UserService userServiceContract;\r\n\r\n    constructor(address _UserService) public {\r\n        currentId = 1;\r\n        userServiceContract = UserService(_UserService);\r\n    }\r\n\r\n    //May want to change this to n-Names\r\n    function GetNames() public view returns(string[] memory) {\r\n        return names;\r\n    }\r\n\r\n    function CreateRepository(string memory name) public {\r\n        require(!CheckIfRepoExists(name),\"This name is already in use\");\r\n\r\n        Repository repo = new Repository();\r\n        repo.setName(name);\r\n        repo.setId(currentId);\r\n\r\n        nameToRepository[name] = address(repo);\r\n        idToRepository[currentId] = address(repo);\r\n\r\n        repoids.add(currentId);\r\n        names.push(name);\r\n\r\n        emit RepositoryAdded(currentId);\r\n        currentId++;\r\n    }\r\n\r\n    function getRepository(uint256 id) public view returns(address) {\r\n        require(CheckIfRepoExists(id),\"This repository doesn't exist\");\r\n        return idToRepository[id];\r\n    }\r\n\r\n    function getRepository(string memory name) public view returns(address) {\r\n        require(CheckIfRepoExists(name),\"This repository doesn't exist\");\r\n        return nameToRepository[name];\r\n    }\r\n\r\n    function CheckIfRepoExists(uint256 id) public view returns(bool) {\r\n        return repoids.contains(id);\r\n    }\r\n\r\n    function CheckIfRepoExists(string memory name) public view returns(bool) {\r\n        return nameToRepository[name] != address(0);\r\n    }\r\n}",
  "sourcePath": "C:\\Users\\gebruiker\\Desktop\\Studies\\Bachelor proef\\Bachelorproef\\Demo\\Demo\\Contracts\\contracts\\RepositoryService.sol",
  "compiler": {
    "name": "solc",
    "version": "0.6.8+commit.0bbfe453.Emscripten.clang"
  },
  "schemaVersion": "3.1.0",
  "updatedAt": "2020-05-24T15:02:27.826Z",
  "devdoc": {
    "methods": {}
  },
  "userdoc": {
    "methods": {}
  }
}