{
  "contractName": "Repository",
  "abi": [
    {
      "inputs": [],
      "stateMutability": "nonpayable",
      "type": "constructor"
    },
    {
      "anonymous": false,
      "inputs": [
        {
          "indexed": false,
          "internalType": "string",
          "name": "_cid",
          "type": "string"
        }
      ],
      "name": "CIDChanged",
      "type": "event"
    },
    {
      "anonymous": false,
      "inputs": [
        {
          "indexed": true,
          "internalType": "address",
          "name": "previousOwner",
          "type": "address"
        },
        {
          "indexed": true,
          "internalType": "address",
          "name": "newOwner",
          "type": "address"
        }
      ],
      "name": "OwnershipTransferred",
      "type": "event"
    },
    {
      "inputs": [],
      "name": "cid",
      "outputs": [
        {
          "internalType": "string",
          "name": "",
          "type": "string"
        }
      ],
      "stateMutability": "view",
      "type": "function"
    },
    {
      "inputs": [],
      "name": "id",
      "outputs": [
        {
          "internalType": "uint256",
          "name": "",
          "type": "uint256"
        }
      ],
      "stateMutability": "view",
      "type": "function"
    },
    {
      "inputs": [],
      "name": "name",
      "outputs": [
        {
          "internalType": "string",
          "name": "",
          "type": "string"
        }
      ],
      "stateMutability": "view",
      "type": "function"
    },
    {
      "inputs": [],
      "name": "owner",
      "outputs": [
        {
          "internalType": "address",
          "name": "",
          "type": "address"
        }
      ],
      "stateMutability": "view",
      "type": "function"
    },
    {
      "inputs": [
        {
          "internalType": "address",
          "name": "newOwner",
          "type": "address"
        }
      ],
      "name": "transferOwnership",
      "outputs": [],
      "stateMutability": "nonpayable",
      "type": "function"
    },
    {
      "inputs": [],
      "name": "version",
      "outputs": [
        {
          "internalType": "uint256",
          "name": "",
          "type": "uint256"
        }
      ],
      "stateMutability": "view",
      "type": "function"
    },
    {
      "inputs": [],
      "name": "getName",
      "outputs": [
        {
          "internalType": "string",
          "name": "",
          "type": "string"
        }
      ],
      "stateMutability": "view",
      "type": "function"
    },
    {
      "inputs": [
        {
          "internalType": "string",
          "name": "_cid",
          "type": "string"
        }
      ],
      "name": "setCid",
      "outputs": [],
      "stateMutability": "nonpayable",
      "type": "function"
    },
    {
      "inputs": [],
      "name": "getCid",
      "outputs": [
        {
          "internalType": "string",
          "name": "",
          "type": "string"
        }
      ],
      "stateMutability": "view",
      "type": "function"
    },
    {
      "inputs": [],
      "name": "getId",
      "outputs": [
        {
          "internalType": "uint256",
          "name": "",
          "type": "uint256"
        }
      ],
      "stateMutability": "view",
      "type": "function"
    },
    {
      "inputs": [
        {
          "internalType": "string",
          "name": "_name",
          "type": "string"
        }
      ],
      "name": "setName",
      "outputs": [],
      "stateMutability": "nonpayable",
      "type": "function"
    },
    {
      "inputs": [
        {
          "internalType": "uint256",
          "name": "_id",
          "type": "uint256"
        }
      ],
      "name": "setId",
      "outputs": [],
      "stateMutability": "nonpayable",
      "type": "function"
    }
  ],
  "bytecode": "0x608060405234801561001057600080fd5b506000329050806000806101000a81548173ffffffffffffffffffffffffffffffffffffffff021916908373ffffffffffffffffffffffffffffffffffffffff1602179055508073ffffffffffffffffffffffffffffffffffffffff16600073ffffffffffffffffffffffffffffffffffffffff167f8be0079c531659141344cd1fd0a4f28419497f9722a3daafe3b4186f6b6457e060405160405180910390a3506001600481905550610d33806100c96000396000f3fe608060405234801561001057600080fd5b50600436106100b45760003560e01c8063af640d0f11610071578063af640d0f146102c8578063b7e03bec146102e6578063c47f0027146103a1578063ca00c7021461045c578063d0e0ba95146104df578063f2fde38b1461050d576100b4565b806306fdde03146100b957806317d7de7c1461013c57806354fd4d50146101bf5780635d1ca631146101dd5780638da5cb5b146101fb578063aa3ec0a914610245575b600080fd5b6100c1610551565b6040518080602001828103825283818151815260200191508051906020019080838360005b838110156101015780820151818401526020810190506100e6565b50505050905090810190601f16801561012e5780820380516001836020036101000a031916815260200191505b509250505060405180910390f35b6101446105ef565b6040518080602001828103825283818151815260200191508051906020019080838360005b83811015610184578082015181840152602081019050610169565b50505050905090810190601f1680156101b15780820380516001836020036101000a031916815260200191505b509250505060405180910390f35b6101c7610691565b6040518082815260200191505060405180910390f35b6101e5610697565b6040518082815260200191505060405180910390f35b6102036106a1565b604051808273ffffffffffffffffffffffffffffffffffffffff1673ffffffffffffffffffffffffffffffffffffffff16815260200191505060405180910390f35b61024d6106ca565b6040518080602001828103825283818151815260200191508051906020019080838360005b8381101561028d578082015181840152602081019050610272565b50505050905090810190601f1680156102ba5780820380516001836020036101000a031916815260200191505b509250505060405180910390f35b6102d0610768565b6040518082815260200191505060405180910390f35b61039f600480360360208110156102fc57600080fd5b810190808035906020019064010000000081111561031957600080fd5b82018360208201111561032b57600080fd5b8035906020019184600183028401116401000000008311171561034d57600080fd5b91908080601f016020809104026020016040519081016040528093929190818152602001838380828437600081840152601f19601f82011690508083019250505050505050919291929050505061076e565b005b61045a600480360360208110156103b757600080fd5b81019080803590602001906401000000008111156103d457600080fd5b8201836020820111156103e657600080fd5b8035906020019184600183028401116401000000008311171561040857600080fd5b91908080601f016020809104026020016040519081016040528093929190818152602001838380828437600081840152601f19601f8201169050808301925050505050505091929192905050506108bb565b005b610464610930565b6040518080602001828103825283818151815260200191508051906020019080838360005b838110156104a4578082015181840152602081019050610489565b50505050905090810190601f1680156104d15780820380516001836020036101000a031916815260200191505b509250505060405180910390f35b61050b600480360360208110156104f557600080fd5b81019080803590602001909291905050506109d2565b005b61054f6004803603602081101561052357600080fd5b81019080803573ffffffffffffffffffffffffffffffffffffffff1690602001909291905050506109dc565b005b60028054600181600116156101000203166002900480601f0160208091040260200160405190810160405280929190818152602001828054600181600116156101000203166002900480156105e75780601f106105bc576101008083540402835291602001916105e7565b820191906000526020600020905b8154815290600101906020018083116105ca57829003601f168201915b505050505081565b606060028054600181600116156101000203166002900480601f0160208091040260200160405190810160405280929190818152602001828054600181600116156101000203166002900480156106875780601f1061065c57610100808354040283529160200191610687565b820191906000526020600020905b81548152906001019060200180831161066a57829003601f168201915b5050505050905090565b60045481565b6000600354905090565b60008060009054906101000a900473ffffffffffffffffffffffffffffffffffffffff16905090565b60018054600181600116156101000203166002900480601f0160208091040260200160405190810160405280929190818152602001828054600181600116156101000203166002900480156107605780601f1061073557610100808354040283529160200191610760565b820191906000526020600020905b81548152906001019060200180831161074357829003601f168201915b505050505081565b60035481565b6000815114156107c9576040517f08c379a0000000000000000000000000000000000000000000000000000000008152600401808060200182810382526028815260200180610cd66028913960400191505060405180910390fd5b8060056000600454815260200190815260200160002090805190602001906107f2929190610be2565b508060019080519060200190610809929190610be2565b507ffd914cf1fcc705ff7237806e3702e2463da45f054b3aa345985b20093b6d2923816040518080602001828103825283818151815260200191508051906020019080838360005b8381101561086c578082015181840152602081019050610851565b50505050905090810190601f1680156108995780820380516001836020036101000a031916815260200191505b509250505060405180910390a160046000815480929190600101919050555050565b600081511415610916576040517f08c379a0000000000000000000000000000000000000000000000000000000008152600401808060200182810382526028815260200180610cae6028913960400191505060405180910390fd5b806002908051906020019061092c929190610be2565b5050565b606060018054600181600116156101000203166002900480601f0160208091040260200160405190810160405280929190818152602001828054600181600116156101000203166002900480156109c85780601f1061099d576101008083540402835291602001916109c8565b820191906000526020600020905b8154815290600101906020018083116109ab57829003601f168201915b5050505050905090565b8060038190555050565b3373ffffffffffffffffffffffffffffffffffffffff166000809054906101000a900473ffffffffffffffffffffffffffffffffffffffff1673ffffffffffffffffffffffffffffffffffffffff1614610a9e576040517f08c379a00000000000000000000000000000000000000000000000000000000081526004018080602001828103825260208152602001807f4f776e61626c653a2063616c6c6572206973206e6f7420746865206f776e657281525060200191505060405180910390fd5b600073ffffffffffffffffffffffffffffffffffffffff168173ffffffffffffffffffffffffffffffffffffffff161415610b24576040517f08c379a0000000000000000000000000000000000000000000000000000000008152600401808060200182810382526026815260200180610c886026913960400191505060405180910390fd5b8073ffffffffffffffffffffffffffffffffffffffff166000809054906101000a900473ffffffffffffffffffffffffffffffffffffffff1673ffffffffffffffffffffffffffffffffffffffff167f8be0079c531659141344cd1fd0a4f28419497f9722a3daafe3b4186f6b6457e060405160405180910390a3806000806101000a81548173ffffffffffffffffffffffffffffffffffffffff021916908373ffffffffffffffffffffffffffffffffffffffff16021790555050565b828054600181600116156101000203166002900490600052602060002090601f016020900481019282601f10610c2357805160ff1916838001178555610c51565b82800160010185558215610c51579182015b82811115610c50578251825591602001919060010190610c35565b5b509050610c5e9190610c62565b5090565b610c8491905b80821115610c80576000816000905550600101610c68565b5090565b9056fe4f776e61626c653a206e6577206f776e657220697320746865207a65726f2061646472657373506c656173652070726f766964652061206e616d6520666f7220746865207265706f7369746f7279506c656173652070726f7669646520612063696420666f722074686973207265706f7369746f7279a264697066735822122014df1a9eb4f6c65ec82ffeabc9b5e8b0e0e4f5f970063a1e0f2ae4353481a9cc64736f6c63430006080033",
  "immutableReferences": {},
  "source": "// SPDX-License-Identifier: MIT\r\npragma solidity >=0.6.0;\r\nimport \"./Helpers/OwnableOtherContract.sol\";\r\n\r\ncontract Repository is OwnableOtherContract {\r\n    string public cid;\r\n    string public name;\r\n    uint256 public id;\r\n    uint256 public version;\r\n\r\n    mapping(uint256 => string) history;\r\n    event CIDChanged(string _cid);\r\n\r\n    constructor() public {\r\n        version = 1;\r\n    }\r\n\r\n    function getName() public view returns(string memory) {\r\n        return name;\r\n    }\r\n\r\n    function setCid(string memory _cid) public{\r\n        require(bytes(_cid).length != 0,\"Please provide a cid for this repository\");\r\n        history[version] = _cid;\r\n        cid = _cid;\r\n        emit CIDChanged(_cid);\r\n        version++;\r\n    }\r\n\r\n    function getCid() public view returns(string memory){\r\n        return cid;\r\n    }\r\n\r\n    function getId() public view returns(uint256) {\r\n        return id;\r\n    }\r\n\r\n    function setName(string memory _name) public {\r\n        require(bytes(_name).length != 0,\"Please provide a name for the repository\");\r\n        name = _name;\r\n    }\r\n\r\n    function setId(uint256 _id) public {\r\n        id = _id;\r\n    }\r\n}",
  "sourcePath": "C:\\Users\\gebruiker\\Desktop\\Studies\\Bachelor proef\\Bachelorproef\\Demo\\Demo\\Contracts\\contracts\\Repository.sol",
  "compiler": {
    "name": "solc",
    "version": "0.6.8+commit.0bbfe453.Emscripten.clang"
  },
  "schemaVersion": "3.1.0",
  "updatedAt": "2020-05-26T16:37:14.389Z",
  "devdoc": {
    "methods": {
      "owner()": {
        "details": "Returns the address of the current owner."
      },
      "transferOwnership(address)": {
        "details": "Transfers ownership of the contract to a new account (`newOwner`). Can only be called by the current owner."
      }
    }
  },
  "userdoc": {
    "methods": {}
  }
}