{
  "contractName": "Repository",
  "abi": [
    {
      "anonymous": false,
      "inputs": [
        {
          "indexed": true,
          "internalType": "address",
          "name": "previousOwner",
          "type": "address"
        },
        {
          "indexed": true,
          "internalType": "address",
          "name": "newOwner",
          "type": "address"
        }
      ],
      "name": "OwnershipTransferred",
      "type": "event"
    },
    {
      "inputs": [],
      "name": "cid",
      "outputs": [
        {
          "internalType": "string",
          "name": "",
          "type": "string"
        }
      ],
      "stateMutability": "view",
      "type": "function"
    },
    {
      "inputs": [],
      "name": "id",
      "outputs": [
        {
          "internalType": "uint256",
          "name": "",
          "type": "uint256"
        }
      ],
      "stateMutability": "view",
      "type": "function"
    },
    {
      "inputs": [],
      "name": "name",
      "outputs": [
        {
          "internalType": "string",
          "name": "",
          "type": "string"
        }
      ],
      "stateMutability": "view",
      "type": "function"
    },
    {
      "inputs": [],
      "name": "owner",
      "outputs": [
        {
          "internalType": "address",
          "name": "",
          "type": "address"
        }
      ],
      "stateMutability": "view",
      "type": "function"
    },
    {
      "inputs": [],
      "name": "repoVisibility",
      "outputs": [
        {
          "internalType": "enum Repository.Visibility",
          "name": "",
          "type": "uint8"
        }
      ],
      "stateMutability": "view",
      "type": "function"
    },
    {
      "inputs": [
        {
          "internalType": "address",
          "name": "newOwner",
          "type": "address"
        }
      ],
      "name": "transferOwnership",
      "outputs": [],
      "stateMutability": "nonpayable",
      "type": "function"
    },
    {
      "inputs": [
        {
          "internalType": "string",
          "name": "_name",
          "type": "string"
        }
      ],
      "name": "setName",
      "outputs": [],
      "stateMutability": "nonpayable",
      "type": "function"
    },
    {
      "inputs": [
        {
          "internalType": "uint256",
          "name": "_id",
          "type": "uint256"
        }
      ],
      "name": "setId",
      "outputs": [],
      "stateMutability": "nonpayable",
      "type": "function"
    }
  ],
  "bytecode": "0x608060405234801561001057600080fd5b506000329050806000806101000a81548173ffffffffffffffffffffffffffffffffffffffff021916908373ffffffffffffffffffffffffffffffffffffffff1602179055508073ffffffffffffffffffffffffffffffffffffffff16600073ffffffffffffffffffffffffffffffffffffffff167f8be0079c531659141344cd1fd0a4f28419497f9722a3daafe3b4186f6b6457e060405160405180910390a350610880806100c16000396000f3fe608060405234801561001057600080fd5b50600436106100885760003560e01c8063af640d0f1161005b578063af640d0f14610209578063c47f002714610227578063d0e0ba95146102e2578063f2fde38b1461031057610088565b806306fdde031461008d57806362a87ad5146101105780638da5cb5b1461013c578063aa3ec0a914610186575b600080fd5b610095610354565b6040518080602001828103825283818151815260200191508051906020019080838360005b838110156100d55780820151818401526020810190506100ba565b50505050905090810190601f1680156101025780820380516001836020036101000a031916815260200191505b509250505060405180910390f35b6101186103f2565b6040518082600181111561012857fe5b60ff16815260200191505060405180910390f35b610144610405565b604051808273ffffffffffffffffffffffffffffffffffffffff1673ffffffffffffffffffffffffffffffffffffffff16815260200191505060405180910390f35b61018e61042e565b6040518080602001828103825283818151815260200191508051906020019080838360005b838110156101ce5780820151818401526020810190506101b3565b50505050905090810190601f1680156101fb5780820380516001836020036101000a031916815260200191505b509250505060405180910390f35b6102116104cc565b6040518082815260200191505060405180910390f35b6102e06004803603602081101561023d57600080fd5b810190808035906020019064010000000081111561025a57600080fd5b82018360208201111561026c57600080fd5b8035906020019184600183028401116401000000008311171561028e57600080fd5b91908080601f016020809104026020016040519081016040528093929190818152602001838380828437600081840152601f19601f8201169050808301925050505050505091929192905050506104d2565b005b61030e600480360360208110156102f857600080fd5b8101908080359060200190929190505050610547565b005b6103526004803603602081101561032657600080fd5b81019080803573ffffffffffffffffffffffffffffffffffffffff169060200190929190505050610551565b005b60028054600181600116156101000203166002900480601f0160208091040260200160405190810160405280929190818152602001828054600181600116156101000203166002900480156103ea5780601f106103bf576101008083540402835291602001916103ea565b820191906000526020600020905b8154815290600101906020018083116103cd57829003601f168201915b505050505081565b600460009054906101000a900460ff1681565b60008060009054906101000a900473ffffffffffffffffffffffffffffffffffffffff16905090565b60018054600181600116156101000203166002900480601f0160208091040260200160405190810160405280929190818152602001828054600181600116156101000203166002900480156104c45780601f10610499576101008083540402835291602001916104c4565b820191906000526020600020905b8154815290600101906020018083116104a757829003601f168201915b505050505081565b60035481565b60008151141561052d576040517f08c379a00000000000000000000000000000000000000000000000000000000081526004018080602001828103825260288152602001806108236028913960400191505060405180910390fd5b8060029080519060200190610543929190610757565b5050565b8060038190555050565b3373ffffffffffffffffffffffffffffffffffffffff166000809054906101000a900473ffffffffffffffffffffffffffffffffffffffff1673ffffffffffffffffffffffffffffffffffffffff1614610613576040517f08c379a00000000000000000000000000000000000000000000000000000000081526004018080602001828103825260208152602001807f4f776e61626c653a2063616c6c6572206973206e6f7420746865206f776e657281525060200191505060405180910390fd5b600073ffffffffffffffffffffffffffffffffffffffff168173ffffffffffffffffffffffffffffffffffffffff161415610699576040517f08c379a00000000000000000000000000000000000000000000000000000000081526004018080602001828103825260268152602001806107fd6026913960400191505060405180910390fd5b8073ffffffffffffffffffffffffffffffffffffffff166000809054906101000a900473ffffffffffffffffffffffffffffffffffffffff1673ffffffffffffffffffffffffffffffffffffffff167f8be0079c531659141344cd1fd0a4f28419497f9722a3daafe3b4186f6b6457e060405160405180910390a3806000806101000a81548173ffffffffffffffffffffffffffffffffffffffff021916908373ffffffffffffffffffffffffffffffffffffffff16021790555050565b828054600181600116156101000203166002900490600052602060002090601f016020900481019282601f1061079857805160ff19168380011785556107c6565b828001600101855582156107c6579182015b828111156107c55782518255916020019190600101906107aa565b5b5090506107d391906107d7565b5090565b6107f991905b808211156107f55760008160009055506001016107dd565b5090565b9056fe4f776e61626c653a206e6577206f776e657220697320746865207a65726f2061646472657373506c656173652070726f766964652061206e616d6520666f7220746865207265706f7369746f7279a264697066735822122093295fb70be45a010bbdc249b1a5622361338555cd426ad5d66827271a1a4e6364736f6c63430006080033",
  "immutableReferences": {},
  "source": "// SPDX-License-Identifier: MIT\r\npragma solidity >=0.6.0;\r\nimport \"./Helpers/OwnableOtherContract.sol\";\r\n\r\ncontract Repository is OwnableOtherContract {\r\n    string public cid;\r\n    string public name;\r\n    uint256 public id;\r\n\r\n    enum Visibility {\r\n        pub,\r\n        priv\r\n    }\r\n\r\n    Visibility public repoVisibility;\r\n\r\n    function setName(string memory _name) public {\r\n        require(bytes(_name).length != 0,\"Please provide a name for the repository\");\r\n        name = _name;\r\n    }\r\n\r\n    function setId(uint256 _id) public {\r\n        id = _id;\r\n    }\r\n}",
  "sourcePath": "C:\\Users\\gebruiker\\Desktop\\Studies\\Bachelor proef\\Bachelorproef\\Demo\\Demo\\Contracts\\contracts\\Repository.sol",
  "compiler": {
    "name": "solc",
    "version": "0.6.8+commit.0bbfe453.Emscripten.clang"
  },
  "schemaVersion": "3.1.0",
  "updatedAt": "2020-05-24T15:02:27.821Z",
  "devdoc": {
    "methods": {
      "owner()": {
        "details": "Returns the address of the current owner."
      },
      "transferOwnership(address)": {
        "details": "Transfers ownership of the contract to a new account (`newOwner`). Can only be called by the current owner."
      }
    }
  },
  "userdoc": {
    "methods": {}
  }
}