{
  "contractName": "UserService",
  "abi": [
    {
      "anonymous": false,
      "inputs": [
        {
          "indexed": false,
          "internalType": "string",
          "name": "_username",
          "type": "string"
        }
      ],
      "name": "NewUserAdded",
      "type": "event"
    },
    {
      "anonymous": false,
      "inputs": [
        {
          "indexed": false,
          "internalType": "string",
          "name": "_username",
          "type": "string"
        }
      ],
      "name": "UserDeleted",
      "type": "event"
    },
    {
      "inputs": [
        {
          "internalType": "string",
          "name": "_username",
          "type": "string"
        }
      ],
      "name": "usernameExists",
      "outputs": [
        {
          "internalType": "bool",
          "name": "",
          "type": "bool"
        }
      ],
      "stateMutability": "view",
      "type": "function"
    },
    {
      "inputs": [],
      "name": "RequireTest",
      "outputs": [],
      "stateMutability": "pure",
      "type": "function"
    },
    {
      "inputs": [],
      "name": "GetUsernameFromUser",
      "outputs": [
        {
          "internalType": "string",
          "name": "",
          "type": "string"
        }
      ],
      "stateMutability": "view",
      "type": "function"
    },
    {
      "inputs": [],
      "name": "userHasAccount",
      "outputs": [
        {
          "internalType": "bool",
          "name": "",
          "type": "bool"
        }
      ],
      "stateMutability": "view",
      "type": "function"
    },
    {
      "inputs": [
        {
          "internalType": "string",
          "name": "_username",
          "type": "string"
        }
      ],
      "name": "addUser",
      "outputs": [],
      "stateMutability": "nonpayable",
      "type": "function"
    },
    {
      "inputs": [
        {
          "internalType": "string",
          "name": "_username",
          "type": "string"
        }
      ],
      "name": "getUser",
      "outputs": [
        {
          "internalType": "address",
          "name": "",
          "type": "address"
        }
      ],
      "stateMutability": "view",
      "type": "function"
    },
    {
      "inputs": [],
      "name": "getAmountOfUsers",
      "outputs": [
        {
          "internalType": "uint256",
          "name": "",
          "type": "uint256"
        }
      ],
      "stateMutability": "view",
      "type": "function"
    },
    {
      "inputs": [
        {
          "internalType": "string",
          "name": "_username",
          "type": "string"
        }
      ],
      "name": "removeUser",
      "outputs": [],
      "stateMutability": "nonpayable",
      "type": "function"
    }
  ],
  "bytecode": "0x608060405234801561001057600080fd5b506111b2806100206000396000f3fe608060405234801561001057600080fd5b50600436106100885760003560e01c8063600cee781161005b578063600cee781461026f5780636dd9751a1461032a578063cd94f69f14610348578063f309e3f9146103cb57610088565b806318b8275a1461008d57806331feb6711461014857806332fa119b146102435780633e7bc8ee14610265575b600080fd5b610146600480360360208110156100a357600080fd5b81019080803590602001906401000000008111156100c057600080fd5b8201836020820111156100d257600080fd5b803590602001918460018302840111640100000000831117156100f457600080fd5b91908080601f016020809104026020016040519081016040528093929190818152602001838380828437600081840152601f19601f82011690508083019250505050505050919291929050505061049e565b005b6102016004803603602081101561015e57600080fd5b810190808035906020019064010000000081111561017b57600080fd5b82018360208201111561018d57600080fd5b803590602001918460018302840111640100000000831117156101af57600080fd5b91908080601f016020809104026020016040519081016040528093929190818152602001838380828437600081840152601f19601f820116905080830192505050505050509192919290505050610737565b604051808273ffffffffffffffffffffffffffffffffffffffff1673ffffffffffffffffffffffffffffffffffffffff16815260200191505060405180910390f35b61024b610848565b604051808215151515815260200191505060405180910390f35b61026d610863565b005b6103286004803603602081101561028557600080fd5b81019080803590602001906401000000008111156102a257600080fd5b8201836020820111156102b457600080fd5b803590602001918460018302840111640100000000831117156102d657600080fd5b91908080601f016020809104026020016040519081016040528093929190818152602001838380828437600081840152601f19601f8201169050808301925050505050505091929192905050506108dc565b005b610332610c2e565b6040518082815260200191505060405180910390f35b610350610c3f565b6040518080602001828103825283818151815260200191508051906020019080838360005b83811015610390578082015181840152602081019050610375565b50505050905090810190601f1680156103bd5780820380516001836020036101000a031916815260200191505b509250505060405180910390f35b610484600480360360208110156103e157600080fd5b81019080803590602001906401000000008111156103fe57600080fd5b82018360208201111561041057600080fd5b8035906020019184600183028401116401000000008311171561043257600080fd5b91908080601f016020809104026020016040519081016040528093929190818152602001838380828437600081840152601f19601f820116905080830192505050505050509192919290505050610d98565b604051808215151515815260200191505060405180910390f35b6104a781610d98565b156104fd576040517f08c379a00000000000000000000000000000000000000000000000000000000081526004018080602001828103825260258152602001806111346025913960400191505060405180910390fd5b610511336002610e5d90919063ffffffff16565b15610584576040517f08c379a00000000000000000000000000000000000000000000000000000000081526004018080602001828103825260208152602001807f54686973207573657220616c72656164792068617320616e206163636f756e7481525060200191505060405180910390fd5b336000826040518082805190602001908083835b602083106105bb5780518252602082019150602081019050602083039250610598565b6001836020036101000a038019825116818451168082178552505050505050905001915050908152602001604051809103902060000160006101000a81548173ffffffffffffffffffffffffffffffffffffffff021916908373ffffffffffffffffffffffffffffffffffffffff16021790555080600160003373ffffffffffffffffffffffffffffffffffffffff1673ffffffffffffffffffffffffffffffffffffffff168152602001908152602001600020908051906020019061068292919061108e565b50610697336002610e8d90919063ffffffff16565b507f700013834c7df46b7742d17c10b80c33de4aba3c909413be3b85be835b315d16816040518080602001828103825283818151815260200191508051906020019080838360005b838110156106fa5780820151818401526020810190506106df565b50505050905090810190601f1680156107275780820380516001836020036101000a031916815260200191505b509250505060405180910390a150565b600061074282610d98565b6107b4576040517f08c379a00000000000000000000000000000000000000000000000000000000081526004018080602001828103825260178152602001807f54686973207573657220646f65736e277420657869737400000000000000000081525060200191505060405180910390fd5b6000826040518082805190602001908083835b602083106107ea57805182526020820191506020810190506020830392506107c7565b6001836020036101000a038019825116818451168082178552505050505050905001915050908152602001604051809103902060000160009054906101000a900473ffffffffffffffffffffffffffffffffffffffff169050919050565b600061085e336002610e5d90919063ffffffff16565b905090565b60026001146108da576040517f08c379a00000000000000000000000000000000000000000000000000000000081526004018080602001828103825260138152602001807f526571756972652074657374206661696c65640000000000000000000000000081525060200191505060405180910390fd5b565b6108e581610d98565b610957576040517f08c379a00000000000000000000000000000000000000000000000000000000081526004018080602001828103825260178152602001807f54686973207573657220646f65736e277420657869737400000000000000000081525060200191505060405180910390fd5b600080826040518082805190602001908083835b6020831061098e578051825260208201915060208101905060208303925061096b565b6001836020036101000a038019825116818451168082178552505050505050905001915050908152602001604051809103902060000160009054906101000a900473ffffffffffffffffffffffffffffffffffffffff1690503373ffffffffffffffffffffffffffffffffffffffff168173ffffffffffffffffffffffffffffffffffffffff1614610a6b576040517f08c379a00000000000000000000000000000000000000000000000000000000081526004018080602001828103825260248152602001806111596024913960400191505060405180910390fd5b610a7f336002610ebd90919063ffffffff16565b50600080836040518082805190602001908083835b60208310610ab75780518252602082019150602081019050602083039250610a94565b6001836020036101000a038019825116818451168082178552505050505050905001915050908152602001604051809103902060000160006101000a81548173ffffffffffffffffffffffffffffffffffffffff021916908373ffffffffffffffffffffffffffffffffffffffff16021790555060405180602001604052806000815250600160003373ffffffffffffffffffffffffffffffffffffffff1673ffffffffffffffffffffffffffffffffffffffff1681526020019081526020016000209080519060200190610b8d92919061108e565b507f28f7ad4961343bc792aec8e7886fc38c6847f9cd253ec14a633ff3bed8370883826040518080602001828103825283818151815260200191508051906020019080838360005b83811015610bf0578082015181840152602081019050610bd5565b50505050905090810190601f168015610c1d5780820380516001836020036101000a031916815260200191505b509250505060405180910390a15050565b6000610c3a6002610eed565b905090565b6060610c49610848565b610cbb576040517f08c379a00000000000000000000000000000000000000000000000000000000081526004018080602001828103825260188152602001807f54686973207573657220686173206e6f206163636f756e74000000000000000081525060200191505060405180910390fd5b600160003373ffffffffffffffffffffffffffffffffffffffff1673ffffffffffffffffffffffffffffffffffffffff1681526020019081526020016000208054600181600116156101000203166002900480601f016020809104026020016040519081016040528092919081815260200182805460018160011615610100020316600290048015610d8e5780601f10610d6357610100808354040283529160200191610d8e565b820191906000526020600020905b815481529060010190602001808311610d7157829003601f168201915b5050505050905090565b60008073ffffffffffffffffffffffffffffffffffffffff166000836040518082805190602001908083835b60208310610de75780518252602082019150602081019050602083039250610dc4565b6001836020036101000a038019825116818451168082178552505050505050905001915050908152602001604051809103902060000160009054906101000a900473ffffffffffffffffffffffffffffffffffffffff1673ffffffffffffffffffffffffffffffffffffffff1614159050919050565b6000610e85836000018373ffffffffffffffffffffffffffffffffffffffff1660001b610f02565b905092915050565b6000610eb5836000018373ffffffffffffffffffffffffffffffffffffffff1660001b610f25565b905092915050565b6000610ee5836000018373ffffffffffffffffffffffffffffffffffffffff1660001b610f95565b905092915050565b6000610efb8260000161107d565b9050919050565b600080836001016000848152602001908152602001600020541415905092915050565b6000610f318383610f02565b610f8a578260000182908060018154018082558091505060019003906000526020600020016000909190919091505582600001805490508360010160008481526020019081526020016000208190555060019050610f8f565b600090505b92915050565b600080836001016000848152602001908152602001600020549050600081146110715760006001820390506000600186600001805490500390506000866000018281548110610fe057fe5b9060005260206000200154905080876000018481548110610ffd57fe5b906000526020600020018190555060018301876001016000838152602001908152602001600020819055508660000180548061103557fe5b60019003818190600052602060002001600090559055866001016000878152602001908152602001600020600090556001945050505050611077565b60009150505b92915050565b600081600001805490509050919050565b828054600181600116156101000203166002900490600052602060002090601f016020900481019282601f106110cf57805160ff19168380011785556110fd565b828001600101855582156110fd579182015b828111156110fc5782518255916020019190600101906110e1565b5b50905061110a919061110e565b5090565b61113091905b8082111561112c576000816000905550600101611114565b5090565b9056fe596f75206861766520746f2070726f76696465206120756e6971756520757365726e616d65596f752063616e206f6e6c792064656c65746520796f7572206f776e206163636f756e74a264697066735822122009c409e8f38cb29c3fe95d4dab094c7f0c747d6e62456058eebedd1bb5a1b06c64736f6c63430006080033",
  "immutableReferences": {},
  "source": "// SPDX-License-Identifier: MIT\r\npragma solidity ^0.6.0;\r\nimport \"../node_modules/@openzeppelin/contracts/utils/EnumerableSet.sol\";\r\n\r\n\r\ncontract UserService {\r\n    using EnumerableSet for EnumerableSet.AddressSet;\r\n\r\n    struct User {\r\n        address _address;\r\n    }\r\n\r\n    mapping(string => User) usernameToUser;\r\n    mapping(address => string) addressToUsername;\r\n\r\n    EnumerableSet.AddressSet users;\r\n\r\n    event NewUserAdded(string _username);\r\n    event UserDeleted(string _username);\r\n\r\n    function usernameExists(string memory _username) public view returns(bool) {\r\n        return usernameToUser[_username]._address != address(0);\r\n    }\r\n\r\n    function RequireTest() public pure {\r\n        require(1==2,\"Require test failed\");\r\n    }\r\n\r\n    function GetUsernameFromUser() public view returns(string memory) {\r\n        require(userHasAccount(),\"This user has no account\");\r\n        return addressToUsername[msg.sender];\r\n    }\r\n\r\n    function userHasAccount() public view returns(bool){\r\n        return users.contains(msg.sender);\r\n    }\r\n\r\n    function addUser(string memory _username) public{\r\n        require(!usernameExists(_username),\"You have to provide a unique username\");\r\n        require(!users.contains(msg.sender),\"This user already has an account\");\r\n\r\n        usernameToUser[_username]._address = msg.sender;\r\n        addressToUsername[msg.sender] = _username;\r\n        users.add(msg.sender);\r\n\r\n        emit NewUserAdded(_username);\r\n    }\r\n\r\n    function getUser(string memory _username) public view returns(address){\r\n        require(usernameExists(_username),\"This user doesn't exist\");\r\n        return usernameToUser[_username]._address;\r\n    }\r\n\r\n    function getAmountOfUsers() public view returns(uint) {\r\n        return users.length();\r\n    }\r\n\r\n    function removeUser(string memory _username) public {\r\n        require(usernameExists(_username),\"This user doesn't exist\");\r\n\r\n        address ad = usernameToUser[_username]._address;\r\n        require(ad == msg.sender,\"You can only delete your own account\");\r\n\r\n        users.remove(msg.sender);\r\n        usernameToUser[_username]._address = address(0);\r\n        addressToUsername[msg.sender] = \"\";\r\n\r\n        emit UserDeleted(_username);\r\n    }\r\n}",
  "sourcePath": "C:\\Users\\gebruiker\\Desktop\\Studies\\Bachelor proef\\Bachelorproef\\Demo\\Demo\\Contracts\\contracts\\UserService.sol",
  "compiler": {
    "name": "solc",
    "version": "0.6.8+commit.0bbfe453.Emscripten.clang"
  },
  "schemaVersion": "3.1.0",
  "updatedAt": "2020-05-23T13:00:56.164Z",
  "devdoc": {
    "methods": {}
  },
  "userdoc": {
    "methods": {}
  }
}