{
  "contractName": "UserService",
  "abi": [
    {
      "anonymous": false,
      "inputs": [
        {
          "indexed": false,
          "internalType": "string",
          "name": "_username",
          "type": "string"
        }
      ],
      "name": "NewUserAdded",
      "type": "event"
    },
    {
      "anonymous": false,
      "inputs": [
        {
          "indexed": false,
          "internalType": "string",
          "name": "_username",
          "type": "string"
        }
      ],
      "name": "UserDeleted",
      "type": "event"
    },
    {
      "anonymous": false,
      "inputs": [
        {
          "indexed": false,
          "internalType": "address",
          "name": "repo",
          "type": "address"
        }
      ],
      "name": "UserHasNewRepository",
      "type": "event"
    },
    {
      "inputs": [
        {
          "internalType": "string",
          "name": "_username",
          "type": "string"
        }
      ],
      "name": "returnRepositoriesByUser",
      "outputs": [
        {
          "internalType": "address[]",
          "name": "",
          "type": "address[]"
        }
      ],
      "stateMutability": "view",
      "type": "function"
    },
    {
      "inputs": [
        {
          "internalType": "string",
          "name": "_username",
          "type": "string"
        }
      ],
      "name": "usernameExists",
      "outputs": [
        {
          "internalType": "bool",
          "name": "",
          "type": "bool"
        }
      ],
      "stateMutability": "view",
      "type": "function"
    },
    {
      "inputs": [],
      "name": "RequireTest",
      "outputs": [],
      "stateMutability": "pure",
      "type": "function"
    },
    {
      "inputs": [],
      "name": "GetUsernameFromTXUser",
      "outputs": [
        {
          "internalType": "string",
          "name": "",
          "type": "string"
        }
      ],
      "stateMutability": "view",
      "type": "function"
    },
    {
      "inputs": [],
      "name": "GetUsernameFromUser",
      "outputs": [
        {
          "internalType": "string",
          "name": "",
          "type": "string"
        }
      ],
      "stateMutability": "view",
      "type": "function"
    },
    {
      "inputs": [],
      "name": "TXUserHasAccount",
      "outputs": [
        {
          "internalType": "bool",
          "name": "",
          "type": "bool"
        }
      ],
      "stateMutability": "view",
      "type": "function"
    },
    {
      "inputs": [],
      "name": "userHasAccount",
      "outputs": [
        {
          "internalType": "bool",
          "name": "",
          "type": "bool"
        }
      ],
      "stateMutability": "view",
      "type": "function"
    },
    {
      "inputs": [
        {
          "internalType": "string",
          "name": "_username",
          "type": "string"
        }
      ],
      "name": "addUser",
      "outputs": [],
      "stateMutability": "nonpayable",
      "type": "function"
    },
    {
      "inputs": [
        {
          "internalType": "string",
          "name": "_username",
          "type": "string"
        }
      ],
      "name": "getUser",
      "outputs": [
        {
          "internalType": "address",
          "name": "",
          "type": "address"
        }
      ],
      "stateMutability": "view",
      "type": "function"
    },
    {
      "inputs": [],
      "name": "getAmountOfUsers",
      "outputs": [
        {
          "internalType": "uint256",
          "name": "",
          "type": "uint256"
        }
      ],
      "stateMutability": "view",
      "type": "function"
    },
    {
      "inputs": [
        {
          "internalType": "string",
          "name": "_username",
          "type": "string"
        }
      ],
      "name": "removeUser",
      "outputs": [],
      "stateMutability": "nonpayable",
      "type": "function"
    },
    {
      "inputs": [
        {
          "internalType": "string",
          "name": "_username",
          "type": "string"
        },
        {
          "internalType": "address",
          "name": "_repoAd",
          "type": "address"
        }
      ],
      "name": "addRepositoryToUser",
      "outputs": [],
      "stateMutability": "nonpayable",
      "type": "function"
    }
  ],
  "bytecode": "0x608060405234801561001057600080fd5b50611a64806100206000396000f3fe608060405234801561001057600080fd5b50600436106100b45760003560e01c806367125ed81161007157806367125ed814610378578063694b87d9146104535780636dd9751a14610563578063cd94f69f14610581578063ef9ebac414610604578063f309e3f914610687576100b4565b806318b8275a146100b957806331feb6711461017457806332fa119b1461026f5780633e7bc8ee1461029157806352aeb8a21461029b578063600cee78146102bd575b600080fd5b610172600480360360208110156100cf57600080fd5b81019080803590602001906401000000008111156100ec57600080fd5b8201836020820111156100fe57600080fd5b8035906020019184600183028401116401000000008311171561012057600080fd5b91908080601f016020809104026020016040519081016040528093929190818152602001838380828437600081840152601f19601f82011690508083019250505050505050919291929050505061075a565b005b61022d6004803603602081101561018a57600080fd5b81019080803590602001906401000000008111156101a757600080fd5b8201836020820111156101b957600080fd5b803590602001918460018302840111640100000000831117156101db57600080fd5b91908080601f016020809104026020016040519081016040528093929190818152602001838380828437600081840152601f19601f8201169050808301925050505050505091929192905050506109f3565b604051808273ffffffffffffffffffffffffffffffffffffffff1673ffffffffffffffffffffffffffffffffffffffff16815260200191505060405180910390f35b610277610b04565b604051808215151515815260200191505060405180910390f35b610299610b1f565b005b6102a3610b98565b604051808215151515815260200191505060405180910390f35b610376600480360360208110156102d357600080fd5b81019080803590602001906401000000008111156102f057600080fd5b82018360208201111561030257600080fd5b8035906020019184600183028401116401000000008311171561032457600080fd5b91908080601f016020809104026020016040519081016040528093929190818152602001838380828437600081840152601f19601f820116905080830192505050505050509192919290505050610bb3565b005b6104516004803603604081101561038e57600080fd5b81019080803590602001906401000000008111156103ab57600080fd5b8201836020820111156103bd57600080fd5b803590602001918460018302840111640100000000831117156103df57600080fd5b91908080601f016020809104026020016040519081016040528093929190818152602001838380828437600081840152601f19601f820116905080830192505050505050509192919290803573ffffffffffffffffffffffffffffffffffffffff169060200190929190505050610f05565b005b61050c6004803603602081101561046957600080fd5b810190808035906020019064010000000081111561048657600080fd5b82018360208201111561049857600080fd5b803590602001918460018302840111640100000000831117156104ba57600080fd5b91908080601f016020809104026020016040519081016040528093929190818152602001838380828437600081840152601f19601f82011690508083019250505050505050919291929050505061113f565b6040518080602001828103825283818151815260200191508051906020019060200280838360005b8381101561054f578082015181840152602081019050610534565b505050509050019250505060405180910390f35b61056b61132b565b6040518082815260200191505060405180910390f35b61058961133c565b6040518080602001828103825283818151815260200191508051906020019080838360005b838110156105c95780820151818401526020810190506105ae565b50505050905090810190601f1680156105f65780820380516001836020036101000a031916815260200191505b509250505060405180910390f35b61060c611495565b6040518080602001828103825283818151815260200191508051906020019080838360005b8381101561064c578082015181840152602081019050610631565b50505050905090810190601f1680156106795780820380516001836020036101000a031916815260200191505b509250505060405180910390f35b6107406004803603602081101561069d57600080fd5b81019080803590602001906401000000008111156106ba57600080fd5b8201836020820111156106cc57600080fd5b803590602001918460018302840111640100000000831117156106ee57600080fd5b91908080601f016020809104026020016040519081016040528093929190818152602001838380828437600081840152601f19601f8201169050808301925050505050505091929192905050506115ee565b604051808215151515815260200191505060405180910390f35b610763816115ee565b156107b9576040517f08c379a00000000000000000000000000000000000000000000000000000000081526004018080602001828103825260258152602001806119ba6025913960400191505060405180910390fd5b6107cd3360026116b390919063ffffffff16565b15610840576040517f08c379a00000000000000000000000000000000000000000000000000000000081526004018080602001828103825260208152602001807f54686973207573657220616c72656164792068617320616e206163636f756e7481525060200191505060405180910390fd5b336000826040518082805190602001908083835b602083106108775780518252602082019150602081019050602083039250610854565b6001836020036101000a038019825116818451168082178552505050505050905001915050908152602001604051809103902060000160006101000a81548173ffffffffffffffffffffffffffffffffffffffff021916908373ffffffffffffffffffffffffffffffffffffffff16021790555080600160003373ffffffffffffffffffffffffffffffffffffffff1673ffffffffffffffffffffffffffffffffffffffff168152602001908152602001600020908051906020019061093e9291906118e4565b506109533360026116e390919063ffffffff16565b507f700013834c7df46b7742d17c10b80c33de4aba3c909413be3b85be835b315d16816040518080602001828103825283818151815260200191508051906020019080838360005b838110156109b657808201518184015260208101905061099b565b50505050905090810190601f1680156109e35780820380516001836020036101000a031916815260200191505b509250505060405180910390a150565b60006109fe826115ee565b610a70576040517f08c379a00000000000000000000000000000000000000000000000000000000081526004018080602001828103825260178152602001807f54686973207573657220646f65736e277420657869737400000000000000000081525060200191505060405180910390fd5b6000826040518082805190602001908083835b60208310610aa65780518252602082019150602081019050602083039250610a83565b6001836020036101000a038019825116818451168082178552505050505050905001915050908152602001604051809103902060000160009054906101000a900473ffffffffffffffffffffffffffffffffffffffff169050919050565b6000610b1a3360026116b390919063ffffffff16565b905090565b6002600114610b96576040517f08c379a00000000000000000000000000000000000000000000000000000000081526004018080602001828103825260138152602001807f526571756972652074657374206661696c65640000000000000000000000000081525060200191505060405180910390fd5b565b6000610bae3260026116b390919063ffffffff16565b905090565b610bbc816115ee565b610c2e576040517f08c379a00000000000000000000000000000000000000000000000000000000081526004018080602001828103825260178152602001807f54686973207573657220646f65736e277420657869737400000000000000000081525060200191505060405180910390fd5b600080826040518082805190602001908083835b60208310610c655780518252602082019150602081019050602083039250610c42565b6001836020036101000a038019825116818451168082178552505050505050905001915050908152602001604051809103902060000160009054906101000a900473ffffffffffffffffffffffffffffffffffffffff1690503373ffffffffffffffffffffffffffffffffffffffff168173ffffffffffffffffffffffffffffffffffffffff1614610d42576040517f08c379a0000000000000000000000000000000000000000000000000000000008152600401808060200182810382526024815260200180611a0b6024913960400191505060405180910390fd5b610d5633600261171390919063ffffffff16565b50600080836040518082805190602001908083835b60208310610d8e5780518252602082019150602081019050602083039250610d6b565b6001836020036101000a038019825116818451168082178552505050505050905001915050908152602001604051809103902060000160006101000a81548173ffffffffffffffffffffffffffffffffffffffff021916908373ffffffffffffffffffffffffffffffffffffffff16021790555060405180602001604052806000815250600160003373ffffffffffffffffffffffffffffffffffffffff1673ffffffffffffffffffffffffffffffffffffffff1681526020019081526020016000209080519060200190610e649291906118e4565b507f28f7ad4961343bc792aec8e7886fc38c6847f9cd253ec14a633ff3bed8370883826040518080602001828103825283818151815260200191508051906020019080838360005b83811015610ec7578082015181840152602081019050610eac565b50505050905090810190601f168015610ef45780820380516001836020036101000a031916815260200191505b509250505060405180910390a15050565b610f0e826115ee565b610f80576040517f08c379a00000000000000000000000000000000000000000000000000000000081526004018080602001828103825260208152602001807f54686520737065636966696564207573657220646f65736e277420657869737481525060200191505060405180910390fd5b600073ffffffffffffffffffffffffffffffffffffffff168173ffffffffffffffffffffffffffffffffffffffff161415611006576040517f08c379a000000000000000000000000000000000000000000000000000000000815260040180806020018281038252602c8152602001806119df602c913960400191505060405180910390fd5b600080836040518082805190602001908083835b6020831061103d578051825260208201915060208101905060208303925061101a565b6001836020036101000a0380198251168184511680821785525050505050509050019150509081526020016040518091039020905080600101829080600181540180825580915050600190039060005260206000200160009091909190916101000a81548173ffffffffffffffffffffffffffffffffffffffff021916908373ffffffffffffffffffffffffffffffffffffffff1602179055507f428dcddbdf512ca237fbc4c07ee3cb2bbed48990dc4fc98556fc432a8732629d82604051808273ffffffffffffffffffffffffffffffffffffffff1673ffffffffffffffffffffffffffffffffffffffff16815260200191505060405180910390a1505050565b606061114a826115ee565b6111bc576040517f08c379a00000000000000000000000000000000000000000000000000000000081526004018080602001828103825260208152602001807f54686520737065636966696564207573657220646f65736e277420657869737481525060200191505060405180910390fd5b6111c4611964565b6000836040518082805190602001908083835b602083106111fa57805182526020820191506020810190506020830392506111d7565b6001836020036101000a03801982511681845116808217855250505050505090500191505090815260200160405180910390206040518060400160405290816000820160009054906101000a900473ffffffffffffffffffffffffffffffffffffffff1673ffffffffffffffffffffffffffffffffffffffff1673ffffffffffffffffffffffffffffffffffffffff1681526020016001820180548060200260200160405190810160405280929190818152602001828054801561131357602002820191906000526020600020905b8160009054906101000a900473ffffffffffffffffffffffffffffffffffffffff1673ffffffffffffffffffffffffffffffffffffffff16815260200190600101908083116112c9575b50505050508152505090508060200151915050919050565b60006113376002611743565b905090565b6060611346610b04565b6113b8576040517f08c379a00000000000000000000000000000000000000000000000000000000081526004018080602001828103825260188152602001807f54686973207573657220686173206e6f206163636f756e74000000000000000081525060200191505060405180910390fd5b600160003373ffffffffffffffffffffffffffffffffffffffff1673ffffffffffffffffffffffffffffffffffffffff1681526020019081526020016000208054600181600116156101000203166002900480601f01602080910402602001604051908101604052809291908181526020018280546001816001161561010002031660029004801561148b5780601f106114605761010080835404028352916020019161148b565b820191906000526020600020905b81548152906001019060200180831161146e57829003601f168201915b5050505050905090565b606061149f610b98565b611511576040517f08c379a00000000000000000000000000000000000000000000000000000000081526004018080602001828103825260188152602001807f54686973207573657220686173206e6f206163636f756e74000000000000000081525060200191505060405180910390fd5b600160003273ffffffffffffffffffffffffffffffffffffffff1673ffffffffffffffffffffffffffffffffffffffff1681526020019081526020016000208054600181600116156101000203166002900480601f0160208091040260200160405190810160405280929190818152602001828054600181600116156101000203166002900480156115e45780601f106115b9576101008083540402835291602001916115e4565b820191906000526020600020905b8154815290600101906020018083116115c757829003601f168201915b5050505050905090565b60008073ffffffffffffffffffffffffffffffffffffffff166000836040518082805190602001908083835b6020831061163d578051825260208201915060208101905060208303925061161a565b6001836020036101000a038019825116818451168082178552505050505050905001915050908152602001604051809103902060000160009054906101000a900473ffffffffffffffffffffffffffffffffffffffff1673ffffffffffffffffffffffffffffffffffffffff1614159050919050565b60006116db836000018373ffffffffffffffffffffffffffffffffffffffff1660001b611758565b905092915050565b600061170b836000018373ffffffffffffffffffffffffffffffffffffffff1660001b61177b565b905092915050565b600061173b836000018373ffffffffffffffffffffffffffffffffffffffff1660001b6117eb565b905092915050565b6000611751826000016118d3565b9050919050565b600080836001016000848152602001908152602001600020541415905092915050565b60006117878383611758565b6117e05782600001829080600181540180825580915050600190039060005260206000200160009091909190915055826000018054905083600101600084815260200190815260200160002081905550600190506117e5565b600090505b92915050565b600080836001016000848152602001908152602001600020549050600081146118c7576000600182039050600060018660000180549050039050600086600001828154811061183657fe5b906000526020600020015490508087600001848154811061185357fe5b906000526020600020018190555060018301876001016000838152602001908152602001600020819055508660000180548061188b57fe5b600190038181906000526020600020016000905590558660010160008781526020019081526020016000206000905560019450505050506118cd565b60009150505b92915050565b600081600001805490509050919050565b828054600181600116156101000203166002900490600052602060002090601f016020900481019282601f1061192557805160ff1916838001178555611953565b82800160010185558215611953579182015b82811115611952578251825591602001919060010190611937565b5b5090506119609190611994565b5090565b6040518060400160405280600073ffffffffffffffffffffffffffffffffffffffff168152602001606081525090565b6119b691905b808211156119b257600081600090555060010161199a565b5090565b9056fe596f75206861766520746f2070726f76696465206120756e6971756520757365726e616d65596f752063616e2774206769766520616e20656d707479207265706f7369746f727920746f20612075736572596f752063616e206f6e6c792064656c65746520796f7572206f776e206163636f756e74a2646970667358221220a997701f39dca78afcf452eb08ae08f8cc7f837a499b6992f1c7522296e3e78164736f6c63430006080033",
  "immutableReferences": {},
  "source": "// SPDX-License-Identifier: MIT\r\npragma solidity ^0.6.0;\r\nimport \"../node_modules/@openzeppelin/contracts/utils/EnumerableSet.sol\";\r\nimport './Repository.sol';\r\n\r\ncontract UserService {\r\n    using EnumerableSet for EnumerableSet.AddressSet;\r\n\r\n    struct User {\r\n        address _address;\r\n        address[] _repositories;\r\n    }\r\n\r\n    mapping(string => User) usernameToUser;\r\n    mapping(address => string) addressToUsername;\r\n\r\n    EnumerableSet.AddressSet users;\r\n\r\n    event NewUserAdded(string _username);\r\n    event UserDeleted(string _username);\r\n    event UserHasNewRepository(address repo);\r\n\r\n    function returnRepositoriesByUser(string memory _username) public view returns(address[] memory) {\r\n        require(usernameExists(_username),\"The specified user doesn't exist\");\r\n        User memory user = usernameToUser[_username];\r\n        return user._repositories;\r\n    }\r\n\r\n    function usernameExists(string memory _username) public view returns(bool) {\r\n        return usernameToUser[_username]._address != address(0);\r\n    }\r\n\r\n    function RequireTest() public pure {\r\n        require(1==2,\"Require test failed\");\r\n    }\r\n\r\n    function GetUsernameFromTXUser() public view returns(string memory) {\r\n        require(TXUserHasAccount(),\"This user has no account\");\r\n        return addressToUsername[tx.origin];\r\n    }\r\n\r\n    function GetUsernameFromUser() public view returns(string memory) {\r\n        require(userHasAccount(),\"This user has no account\");\r\n        return addressToUsername[msg.sender];\r\n    }\r\n\r\n    function TXUserHasAccount() public view returns(bool){\r\n        return users.contains(tx.origin);\r\n    }\r\n\r\n    function userHasAccount() public view returns(bool){\r\n        return users.contains(msg.sender);\r\n    }\r\n\r\n    function addUser(string memory _username) public{\r\n        require(!usernameExists(_username),\"You have to provide a unique username\");\r\n        require(!users.contains(msg.sender),\"This user already has an account\");\r\n\r\n        usernameToUser[_username]._address = msg.sender;\r\n        addressToUsername[msg.sender] = _username;\r\n        users.add(msg.sender);\r\n\r\n        emit NewUserAdded(_username);\r\n    }\r\n\r\n    function getUser(string memory _username) public view returns(address){\r\n        require(usernameExists(_username),\"This user doesn't exist\");\r\n        return usernameToUser[_username]._address;\r\n    }\r\n\r\n    function getAmountOfUsers() public view returns(uint) {\r\n        return users.length();\r\n    }\r\n\r\n    function removeUser(string memory _username) public {\r\n        require(usernameExists(_username),\"This user doesn't exist\");\r\n\r\n        address ad = usernameToUser[_username]._address;\r\n        require(ad == msg.sender,\"You can only delete your own account\");\r\n\r\n        users.remove(msg.sender);\r\n        usernameToUser[_username]._address = address(0);\r\n        addressToUsername[msg.sender] = \"\";\r\n\r\n        emit UserDeleted(_username);\r\n    }\r\n\r\n    function addRepositoryToUser(string memory _username, address _repoAd) public {\r\n        require(usernameExists(_username),\"The specified user doesn't exist\");\r\n        require(_repoAd != address(0),\"You can't give an empty repository to a user\");\r\n\r\n        User storage user = usernameToUser[_username];\r\n        user._repositories.push(_repoAd);\r\n\r\n        emit UserHasNewRepository(_repoAd);\r\n    }\r\n}",
  "sourcePath": "C:\\Users\\gebruiker\\Desktop\\Studies\\Bachelor proef\\Bachelorproef\\Demo\\Demo\\Contracts\\contracts\\UserService.sol",
  "compiler": {
    "name": "solc",
    "version": "0.6.8+commit.0bbfe453.Emscripten.clang"
  },
  "schemaVersion": "3.1.0",
  "updatedAt": "2020-05-24T17:34:11.937Z",
  "devdoc": {
    "methods": {}
  },
  "userdoc": {
    "methods": {}
  }
}