{
  "contractName": "UserService",
  "abi": [
    {
      "anonymous": false,
      "inputs": [
        {
          "indexed": false,
          "internalType": "string",
          "name": "_username",
          "type": "string"
        }
      ],
      "name": "NewUserAdded",
      "type": "event"
    },
    {
      "anonymous": false,
      "inputs": [
        {
          "indexed": false,
          "internalType": "string",
          "name": "_username",
          "type": "string"
        }
      ],
      "name": "UserDeleted",
      "type": "event"
    },
    {
      "inputs": [
        {
          "internalType": "string",
          "name": "_username",
          "type": "string"
        }
      ],
      "name": "usernameExists",
      "outputs": [
        {
          "internalType": "bool",
          "name": "",
          "type": "bool"
        }
      ],
      "stateMutability": "view",
      "type": "function"
    },
    {
      "inputs": [],
      "name": "GetUsernameFromUser",
      "outputs": [
        {
          "internalType": "string",
          "name": "",
          "type": "string"
        }
      ],
      "stateMutability": "view",
      "type": "function"
    },
    {
      "inputs": [],
      "name": "userHasAccount",
      "outputs": [
        {
          "internalType": "bool",
          "name": "",
          "type": "bool"
        }
      ],
      "stateMutability": "view",
      "type": "function"
    },
    {
      "inputs": [
        {
          "internalType": "string",
          "name": "_username",
          "type": "string"
        }
      ],
      "name": "addUser",
      "outputs": [],
      "stateMutability": "nonpayable",
      "type": "function"
    },
    {
      "inputs": [
        {
          "internalType": "string",
          "name": "_username",
          "type": "string"
        }
      ],
      "name": "getUser",
      "outputs": [
        {
          "internalType": "address",
          "name": "",
          "type": "address"
        }
      ],
      "stateMutability": "view",
      "type": "function"
    },
    {
      "inputs": [],
      "name": "getAmountOfUsers",
      "outputs": [
        {
          "internalType": "uint256",
          "name": "",
          "type": "uint256"
        }
      ],
      "stateMutability": "view",
      "type": "function"
    },
    {
      "inputs": [
        {
          "internalType": "string",
          "name": "_username",
          "type": "string"
        }
      ],
      "name": "removeUser",
      "outputs": [],
      "stateMutability": "nonpayable",
      "type": "function"
    }
  ],
  "bytecode": "0x608060405234801561001057600080fd5b50611124806100206000396000f3fe608060405234801561001057600080fd5b506004361061007d5760003560e01c8063600cee781161005b578063600cee781461025a5780636dd9751a14610315578063cd94f69f14610333578063f309e3f9146103b65761007d565b806318b8275a1461008257806331feb6711461013d57806332fa119b14610238575b600080fd5b61013b6004803603602081101561009857600080fd5b81019080803590602001906401000000008111156100b557600080fd5b8201836020820111156100c757600080fd5b803590602001918460018302840111640100000000831117156100e957600080fd5b91908080601f016020809104026020016040519081016040528093929190818152602001838380828437600081840152601f19601f820116905080830192505050505050509192919290505050610489565b005b6101f66004803603602081101561015357600080fd5b810190808035906020019064010000000081111561017057600080fd5b82018360208201111561018257600080fd5b803590602001918460018302840111640100000000831117156101a457600080fd5b91908080601f016020809104026020016040519081016040528093929190818152602001838380828437600081840152601f19601f820116905080830192505050505050509192919290505050610722565b604051808273ffffffffffffffffffffffffffffffffffffffff1673ffffffffffffffffffffffffffffffffffffffff16815260200191505060405180910390f35b610240610833565b604051808215151515815260200191505060405180910390f35b6103136004803603602081101561027057600080fd5b810190808035906020019064010000000081111561028d57600080fd5b82018360208201111561029f57600080fd5b803590602001918460018302840111640100000000831117156102c157600080fd5b91908080601f016020809104026020016040519081016040528093929190818152602001838380828437600081840152601f19601f82011690508083019250505050505050919291929050505061084e565b005b61031d610ba0565b6040518082815260200191505060405180910390f35b61033b610bb1565b6040518080602001828103825283818151815260200191508051906020019080838360005b8381101561037b578082015181840152602081019050610360565b50505050905090810190601f1680156103a85780820380516001836020036101000a031916815260200191505b509250505060405180910390f35b61046f600480360360208110156103cc57600080fd5b81019080803590602001906401000000008111156103e957600080fd5b8201836020820111156103fb57600080fd5b8035906020019184600183028401116401000000008311171561041d57600080fd5b91908080601f016020809104026020016040519081016040528093929190818152602001838380828437600081840152601f19601f820116905080830192505050505050509192919290505050610d0a565b604051808215151515815260200191505060405180910390f35b61049281610d0a565b156104e8576040517f08c379a00000000000000000000000000000000000000000000000000000000081526004018080602001828103825260258152602001806110a66025913960400191505060405180910390fd5b6104fc336002610dcf90919063ffffffff16565b1561056f576040517f08c379a00000000000000000000000000000000000000000000000000000000081526004018080602001828103825260208152602001807f54686973207573657220616c72656164792068617320616e206163636f756e7481525060200191505060405180910390fd5b336000826040518082805190602001908083835b602083106105a65780518252602082019150602081019050602083039250610583565b6001836020036101000a038019825116818451168082178552505050505050905001915050908152602001604051809103902060000160006101000a81548173ffffffffffffffffffffffffffffffffffffffff021916908373ffffffffffffffffffffffffffffffffffffffff16021790555080600160003373ffffffffffffffffffffffffffffffffffffffff1673ffffffffffffffffffffffffffffffffffffffff168152602001908152602001600020908051906020019061066d929190611000565b50610682336002610dff90919063ffffffff16565b507f700013834c7df46b7742d17c10b80c33de4aba3c909413be3b85be835b315d16816040518080602001828103825283818151815260200191508051906020019080838360005b838110156106e55780820151818401526020810190506106ca565b50505050905090810190601f1680156107125780820380516001836020036101000a031916815260200191505b509250505060405180910390a150565b600061072d82610d0a565b61079f576040517f08c379a00000000000000000000000000000000000000000000000000000000081526004018080602001828103825260178152602001807f54686973207573657220646f65736e277420657869737400000000000000000081525060200191505060405180910390fd5b6000826040518082805190602001908083835b602083106107d557805182526020820191506020810190506020830392506107b2565b6001836020036101000a038019825116818451168082178552505050505050905001915050908152602001604051809103902060000160009054906101000a900473ffffffffffffffffffffffffffffffffffffffff169050919050565b6000610849336002610dcf90919063ffffffff16565b905090565b61085781610d0a565b6108c9576040517f08c379a00000000000000000000000000000000000000000000000000000000081526004018080602001828103825260178152602001807f54686973207573657220646f65736e277420657869737400000000000000000081525060200191505060405180910390fd5b600080826040518082805190602001908083835b6020831061090057805182526020820191506020810190506020830392506108dd565b6001836020036101000a038019825116818451168082178552505050505050905001915050908152602001604051809103902060000160009054906101000a900473ffffffffffffffffffffffffffffffffffffffff1690503373ffffffffffffffffffffffffffffffffffffffff168173ffffffffffffffffffffffffffffffffffffffff16146109dd576040517f08c379a00000000000000000000000000000000000000000000000000000000081526004018080602001828103825260248152602001806110cb6024913960400191505060405180910390fd5b6109f1336002610e2f90919063ffffffff16565b50600080836040518082805190602001908083835b60208310610a295780518252602082019150602081019050602083039250610a06565b6001836020036101000a038019825116818451168082178552505050505050905001915050908152602001604051809103902060000160006101000a81548173ffffffffffffffffffffffffffffffffffffffff021916908373ffffffffffffffffffffffffffffffffffffffff16021790555060405180602001604052806000815250600160003373ffffffffffffffffffffffffffffffffffffffff1673ffffffffffffffffffffffffffffffffffffffff1681526020019081526020016000209080519060200190610aff929190611000565b507f28f7ad4961343bc792aec8e7886fc38c6847f9cd253ec14a633ff3bed8370883826040518080602001828103825283818151815260200191508051906020019080838360005b83811015610b62578082015181840152602081019050610b47565b50505050905090810190601f168015610b8f5780820380516001836020036101000a031916815260200191505b509250505060405180910390a15050565b6000610bac6002610e5f565b905090565b6060610bbb610833565b610c2d576040517f08c379a00000000000000000000000000000000000000000000000000000000081526004018080602001828103825260188152602001807f54686973207573657220686173206e6f206163636f756e74000000000000000081525060200191505060405180910390fd5b600160003373ffffffffffffffffffffffffffffffffffffffff1673ffffffffffffffffffffffffffffffffffffffff1681526020019081526020016000208054600181600116156101000203166002900480601f016020809104026020016040519081016040528092919081815260200182805460018160011615610100020316600290048015610d005780601f10610cd557610100808354040283529160200191610d00565b820191906000526020600020905b815481529060010190602001808311610ce357829003601f168201915b5050505050905090565b60008073ffffffffffffffffffffffffffffffffffffffff166000836040518082805190602001908083835b60208310610d595780518252602082019150602081019050602083039250610d36565b6001836020036101000a038019825116818451168082178552505050505050905001915050908152602001604051809103902060000160009054906101000a900473ffffffffffffffffffffffffffffffffffffffff1673ffffffffffffffffffffffffffffffffffffffff1614159050919050565b6000610df7836000018373ffffffffffffffffffffffffffffffffffffffff1660001b610e74565b905092915050565b6000610e27836000018373ffffffffffffffffffffffffffffffffffffffff1660001b610e97565b905092915050565b6000610e57836000018373ffffffffffffffffffffffffffffffffffffffff1660001b610f07565b905092915050565b6000610e6d82600001610fef565b9050919050565b600080836001016000848152602001908152602001600020541415905092915050565b6000610ea38383610e74565b610efc578260000182908060018154018082558091505060019003906000526020600020016000909190919091505582600001805490508360010160008481526020019081526020016000208190555060019050610f01565b600090505b92915050565b60008083600101600084815260200190815260200160002054905060008114610fe35760006001820390506000600186600001805490500390506000866000018281548110610f5257fe5b9060005260206000200154905080876000018481548110610f6f57fe5b9060005260206000200181905550600183018760010160008381526020019081526020016000208190555086600001805480610fa757fe5b60019003818190600052602060002001600090559055866001016000878152602001908152602001600020600090556001945050505050610fe9565b60009150505b92915050565b600081600001805490509050919050565b828054600181600116156101000203166002900490600052602060002090601f016020900481019282601f1061104157805160ff191683800117855561106f565b8280016001018555821561106f579182015b8281111561106e578251825591602001919060010190611053565b5b50905061107c9190611080565b5090565b6110a291905b8082111561109e576000816000905550600101611086565b5090565b9056fe596f75206861766520746f2070726f76696465206120756e6971756520757365726e616d65596f752063616e206f6e6c792064656c65746520796f7572206f776e206163636f756e74a264697066735822122043a6ea6760c6756c227f91d8fd1c4fc3ec6f08989184eb237dff2d88ad7278af64736f6c63430006080033",
  "immutableReferences": {},
  "source": "// SPDX-License-Identifier: MIT\r\npragma solidity ^0.6.0;\r\nimport \"../node_modules/@openzeppelin/contracts/utils/EnumerableSet.sol\";\r\n\r\n\r\ncontract UserService {\r\n    using EnumerableSet for EnumerableSet.AddressSet;\r\n\r\n    struct User {\r\n        address _address;\r\n    }\r\n\r\n    mapping(string => User) usernameToUser;\r\n    mapping(address => string) addressToUsername;\r\n\r\n    EnumerableSet.AddressSet users;\r\n\r\n    event NewUserAdded(string _username);\r\n    event UserDeleted(string _username);\r\n\r\n    function usernameExists(string memory _username) public view returns(bool) {\r\n        return usernameToUser[_username]._address != address(0);\r\n    }\r\n\r\n    function GetUsernameFromUser() public view returns(string memory) {\r\n        require(userHasAccount(),\"This user has no account\");\r\n        return addressToUsername[msg.sender];\r\n    }\r\n\r\n    function userHasAccount() public view returns(bool){\r\n        return users.contains(msg.sender);\r\n    }\r\n\r\n    function addUser(string memory _username) public {\r\n        require(!usernameExists(_username),\"You have to provide a unique username\");\r\n        require(!users.contains(msg.sender),\"This user already has an account\");\r\n\r\n        usernameToUser[_username]._address = msg.sender;\r\n        addressToUsername[msg.sender] = _username;\r\n        users.add(msg.sender);\r\n\r\n        emit NewUserAdded(_username);\r\n    }\r\n\r\n    function getUser(string memory _username) public view returns(address){\r\n        require(usernameExists(_username),\"This user doesn't exist\");\r\n        return usernameToUser[_username]._address;\r\n    }\r\n\r\n    function getAmountOfUsers() public view returns(uint) {\r\n        return users.length();\r\n    }\r\n\r\n    function removeUser(string memory _username) public {\r\n        require(usernameExists(_username),\"This user doesn't exist\");\r\n\r\n        address ad = usernameToUser[_username]._address;\r\n        require(ad == msg.sender,\"You can only delete your own account\");\r\n\r\n        users.remove(msg.sender);\r\n        usernameToUser[_username]._address = address(0);\r\n        addressToUsername[msg.sender] = \"\";\r\n\r\n        emit UserDeleted(_username);\r\n    }\r\n}",
  "sourcePath": "C:\\Users\\gebruiker\\Desktop\\Studies\\Bachelor proef\\Bachelorproef\\Demo\\Demo\\Contracts\\contracts\\UserService.sol",
  "compiler": {
    "name": "solc",
    "version": "0.6.8+commit.0bbfe453.Emscripten.clang"
  },
  "schemaVersion": "3.1.0",
  "updatedAt": "2020-05-22T14:34:51.940Z",
  "devdoc": {
    "methods": {}
  },
  "userdoc": {
    "methods": {}
  }
}