{
  "contractName": "UserService",
  "abi": [
    {
      "anonymous": false,
      "inputs": [
        {
          "indexed": false,
          "internalType": "string",
          "name": "_username",
          "type": "string"
        }
      ],
      "name": "NewUserAdded",
      "type": "event"
    },
    {
      "anonymous": false,
      "inputs": [
        {
          "indexed": false,
          "internalType": "string",
          "name": "_username",
          "type": "string"
        }
      ],
      "name": "UserDeleted",
      "type": "event"
    },
    {
      "anonymous": false,
      "inputs": [
        {
          "indexed": false,
          "internalType": "address",
          "name": "repo",
          "type": "address"
        }
      ],
      "name": "UserHasNewRepository",
      "type": "event"
    },
    {
      "inputs": [
        {
          "internalType": "string",
          "name": "_username",
          "type": "string"
        }
      ],
      "name": "ReturnUser",
      "outputs": [
        {
          "components": [
            {
              "internalType": "address",
              "name": "_address",
              "type": "address"
            },
            {
              "internalType": "address[]",
              "name": "_repositories",
              "type": "address[]"
            }
          ],
          "internalType": "struct UserService.User",
          "name": "",
          "type": "tuple"
        }
      ],
      "stateMutability": "view",
      "type": "function"
    },
    {
      "inputs": [
        {
          "internalType": "string",
          "name": "_username",
          "type": "string"
        }
      ],
      "name": "usernameExists",
      "outputs": [
        {
          "internalType": "bool",
          "name": "",
          "type": "bool"
        }
      ],
      "stateMutability": "view",
      "type": "function"
    },
    {
      "inputs": [],
      "name": "RequireTest",
      "outputs": [],
      "stateMutability": "pure",
      "type": "function"
    },
    {
      "inputs": [],
      "name": "GetUsernameFromTXUser",
      "outputs": [
        {
          "internalType": "string",
          "name": "",
          "type": "string"
        }
      ],
      "stateMutability": "view",
      "type": "function"
    },
    {
      "inputs": [],
      "name": "GetUsernameFromUser",
      "outputs": [
        {
          "internalType": "string",
          "name": "",
          "type": "string"
        }
      ],
      "stateMutability": "view",
      "type": "function"
    },
    {
      "inputs": [],
      "name": "TXUserHasAccount",
      "outputs": [
        {
          "internalType": "bool",
          "name": "",
          "type": "bool"
        }
      ],
      "stateMutability": "view",
      "type": "function"
    },
    {
      "inputs": [],
      "name": "userHasAccount",
      "outputs": [
        {
          "internalType": "bool",
          "name": "",
          "type": "bool"
        }
      ],
      "stateMutability": "view",
      "type": "function"
    },
    {
      "inputs": [
        {
          "internalType": "string",
          "name": "_username",
          "type": "string"
        }
      ],
      "name": "addUser",
      "outputs": [],
      "stateMutability": "nonpayable",
      "type": "function"
    },
    {
      "inputs": [
        {
          "internalType": "string",
          "name": "_username",
          "type": "string"
        }
      ],
      "name": "getUser",
      "outputs": [
        {
          "internalType": "address",
          "name": "",
          "type": "address"
        }
      ],
      "stateMutability": "view",
      "type": "function"
    },
    {
      "inputs": [],
      "name": "getAmountOfUsers",
      "outputs": [
        {
          "internalType": "uint256",
          "name": "",
          "type": "uint256"
        }
      ],
      "stateMutability": "view",
      "type": "function"
    },
    {
      "inputs": [
        {
          "internalType": "string",
          "name": "_username",
          "type": "string"
        }
      ],
      "name": "removeUser",
      "outputs": [],
      "stateMutability": "nonpayable",
      "type": "function"
    },
    {
      "inputs": [
        {
          "internalType": "string",
          "name": "_username",
          "type": "string"
        },
        {
          "internalType": "address",
          "name": "_repoAd",
          "type": "address"
        }
      ],
      "name": "addRepositoryToUser",
      "outputs": [],
      "stateMutability": "nonpayable",
      "type": "function"
    }
  ],
  "bytecode": "0x608060405234801561001057600080fd5b506117d0806100206000396000f3fe608060405234801561001057600080fd5b50600436106100b45760003560e01c806367125ed81161007157806367125ed8146101675780636dd9751a146101835780636ea74fea146101a1578063cd94f69f146101d1578063ef9ebac4146101ef578063f309e3f91461020d576100b4565b806318b8275a146100b957806331feb671146100d557806332fa119b146101055780633e7bc8ee1461012357806352aeb8a21461012d578063600cee781461014b575b600080fd5b6100d360048036038101906100ce9190611023565b61023d565b005b6100ef60048036038101906100ea9190611023565b6103dd565b6040516100fc919061149a565b60405180910390f35b61010d610470565b60405161011a91906114b5565b60405180910390f35b61012b61048b565b005b6101356104d1565b60405161014291906114b5565b60405180910390f35b61016560048036038101906101609190611023565b6104ec565b005b610181600480360381019061017c9190611064565b6106fa565b005b61018b610874565b6040516101989190611614565b60405180910390f35b6101bb60048036038101906101b69190611023565b610885565b6040516101c891906115f2565b60405180910390f35b6101d96109ee565b6040516101e691906114d0565b60405180910390f35b6101f7610b14565b60405161020491906114d0565b60405180910390f35b61022760048036038101906102229190611023565b610c3a565b60405161023491906114b5565b60405180910390f35b61024681610c3a565b15610286576040517f08c379a000000000000000000000000000000000000000000000000000000000815260040161027d90611512565b60405180910390fd5b61029a336002610cb490919063ffffffff16565b156102da576040517f08c379a00000000000000000000000000000000000000000000000000000000081526004016102d190611532565b60405180910390fd5b336000826040516102eb9190611483565b908152602001604051809103902060000160006101000a81548173ffffffffffffffffffffffffffffffffffffffff021916908373ffffffffffffffffffffffffffffffffffffffff16021790555080600160003373ffffffffffffffffffffffffffffffffffffffff1673ffffffffffffffffffffffffffffffffffffffff168152602001908152602001600020908051906020019061038d929190610ee5565b506103a2336002610ce490919063ffffffff16565b507f700013834c7df46b7742d17c10b80c33de4aba3c909413be3b85be835b315d16816040516103d291906114d0565b60405180910390a150565b60006103e882610c3a565b610427576040517f08c379a000000000000000000000000000000000000000000000000000000000815260040161041e906115b2565b60405180910390fd5b6000826040516104379190611483565b908152602001604051809103902060000160009054906101000a900473ffffffffffffffffffffffffffffffffffffffff169050919050565b6000610486336002610cb490919063ffffffff16565b905090565b60026001146104cf576040517f08c379a00000000000000000000000000000000000000000000000000000000081526004016104c690611552565b60405180910390fd5b565b60006104e7326002610cb490919063ffffffff16565b905090565b6104f581610c3a565b610534576040517f08c379a000000000000000000000000000000000000000000000000000000000815260040161052b906115b2565b60405180910390fd5b600080826040516105459190611483565b908152602001604051809103902060000160009054906101000a900473ffffffffffffffffffffffffffffffffffffffff1690503373ffffffffffffffffffffffffffffffffffffffff168173ffffffffffffffffffffffffffffffffffffffff16146105e7576040517f08c379a00000000000000000000000000000000000000000000000000000000081526004016105de906115d2565b60405180910390fd5b6105fb336002610d1490919063ffffffff16565b506000808360405161060d9190611483565b908152602001604051809103902060000160006101000a81548173ffffffffffffffffffffffffffffffffffffffff021916908373ffffffffffffffffffffffffffffffffffffffff16021790555060405180602001604052806000815250600160003373ffffffffffffffffffffffffffffffffffffffff1673ffffffffffffffffffffffffffffffffffffffff16815260200190815260200160002090805190602001906106be929190610ee5565b507f28f7ad4961343bc792aec8e7886fc38c6847f9cd253ec14a633ff3bed8370883826040516106ee91906114d0565b60405180910390a15050565b61070382610c3a565b610742576040517f08c379a0000000000000000000000000000000000000000000000000000000008152600401610739906114f2565b60405180910390fd5b600073ffffffffffffffffffffffffffffffffffffffff168173ffffffffffffffffffffffffffffffffffffffff1614156107b2576040517f08c379a00000000000000000000000000000000000000000000000000000000081526004016107a990611592565b60405180910390fd5b600080836040516107c39190611483565b9081526020016040518091039020905080600101829080600181540180825580915050600190039060005260206000200160009091909190916101000a81548173ffffffffffffffffffffffffffffffffffffffff021916908373ffffffffffffffffffffffffffffffffffffffff1602179055507f428dcddbdf512ca237fbc4c07ee3cb2bbed48990dc4fc98556fc432a8732629d82604051610867919061149a565b60405180910390a1505050565b60006108806002610d44565b905090565b61088d610f65565b61089682610c3a565b6108d5576040517f08c379a00000000000000000000000000000000000000000000000000000000081526004016108cc906114f2565b60405180910390fd5b600080836040516108e69190611483565b90815260200160405180910390209050806040518060400160405290816000820160009054906101000a900473ffffffffffffffffffffffffffffffffffffffff1673ffffffffffffffffffffffffffffffffffffffff1673ffffffffffffffffffffffffffffffffffffffff168152602001600182018054806020026020016040519081016040528092919081815260200182805480156109dd57602002820191906000526020600020905b8160009054906101000a900473ffffffffffffffffffffffffffffffffffffffff1673ffffffffffffffffffffffffffffffffffffffff1681526020019060010190808311610993575b505050505081525050915050919050565b60606109f8610470565b610a37576040517f08c379a0000000000000000000000000000000000000000000000000000000008152600401610a2e90611572565b60405180910390fd5b600160003373ffffffffffffffffffffffffffffffffffffffff1673ffffffffffffffffffffffffffffffffffffffff1681526020019081526020016000208054600181600116156101000203166002900480601f016020809104026020016040519081016040528092919081815260200182805460018160011615610100020316600290048015610b0a5780601f10610adf57610100808354040283529160200191610b0a565b820191906000526020600020905b815481529060010190602001808311610aed57829003601f168201915b5050505050905090565b6060610b1e6104d1565b610b5d576040517f08c379a0000000000000000000000000000000000000000000000000000000008152600401610b5490611572565b60405180910390fd5b600160003273ffffffffffffffffffffffffffffffffffffffff1673ffffffffffffffffffffffffffffffffffffffff1681526020019081526020016000208054600181600116156101000203166002900480601f016020809104026020016040519081016040528092919081815260200182805460018160011615610100020316600290048015610c305780601f10610c0557610100808354040283529160200191610c30565b820191906000526020600020905b815481529060010190602001808311610c1357829003601f168201915b5050505050905090565b60008073ffffffffffffffffffffffffffffffffffffffff16600083604051610c639190611483565b908152602001604051809103902060000160009054906101000a900473ffffffffffffffffffffffffffffffffffffffff1673ffffffffffffffffffffffffffffffffffffffff1614159050919050565b6000610cdc836000018373ffffffffffffffffffffffffffffffffffffffff1660001b610d59565b905092915050565b6000610d0c836000018373ffffffffffffffffffffffffffffffffffffffff1660001b610d7c565b905092915050565b6000610d3c836000018373ffffffffffffffffffffffffffffffffffffffff1660001b610dec565b905092915050565b6000610d5282600001610ed4565b9050919050565b600080836001016000848152602001908152602001600020541415905092915050565b6000610d888383610d59565b610de1578260000182908060018154018082558091505060019003906000526020600020016000909190919091505582600001805490508360010160008481526020019081526020016000208190555060019050610de6565b600090505b92915050565b60008083600101600084815260200190815260200160002054905060008114610ec85760006001820390506000600186600001805490500390506000866000018281548110610e3757fe5b9060005260206000200154905080876000018481548110610e5457fe5b9060005260206000200181905550600183018760010160008381526020019081526020016000208190555086600001805480610e8c57fe5b60019003818190600052602060002001600090559055866001016000878152602001908152602001600020600090556001945050505050610ece565b60009150505b92915050565b600081600001805490509050919050565b828054600181600116156101000203166002900490600052602060002090601f016020900481019282601f10610f2657805160ff1916838001178555610f54565b82800160010185558215610f54579182015b82811115610f53578251825591602001919060010190610f38565b5b509050610f619190610f95565b5090565b6040518060400160405280600073ffffffffffffffffffffffffffffffffffffffff168152602001606081525090565b610fb791905b80821115610fb3576000816000905550600101610f9b565b5090565b90565b600081359050610fc981611783565b92915050565b600082601f830112610fe057600080fd5b8135610ff3610fee8261165c565b61162f565b9150808252602083016020830185838301111561100f57600080fd5b61101a838284611730565b50505092915050565b60006020828403121561103557600080fd5b600082013567ffffffffffffffff81111561104f57600080fd5b61105b84828501610fcf565b91505092915050565b6000806040838503121561107757600080fd5b600083013567ffffffffffffffff81111561109157600080fd5b61109d85828601610fcf565b92505060206110ae85828601610fba565b9150509250929050565b60006110c483836110d0565b60208301905092915050565b6110d9816116e8565b82525050565b6110e8816116e8565b82525050565b60006110f982611698565b61110381856116bb565b935061110e83611688565b8060005b8381101561113f57815161112688826110b8565b9750611131836116ae565b925050600181019050611112565b5085935050505092915050565b611155816116fa565b82525050565b6000611166826116a3565b61117081856116cc565b935061118081856020860161173f565b61118981611772565b840191505092915050565b600061119f826116a3565b6111a981856116dd565b93506111b981856020860161173f565b80840191505092915050565b60006111d26020836116cc565b91507f54686520737065636966696564207573657220646f65736e27742065786973746000830152602082019050919050565b60006112126025836116cc565b91507f596f75206861766520746f2070726f76696465206120756e697175652075736560008301527f726e616d650000000000000000000000000000000000000000000000000000006020830152604082019050919050565b60006112786020836116cc565b91507f54686973207573657220616c72656164792068617320616e206163636f756e746000830152602082019050919050565b60006112b86013836116cc565b91507f526571756972652074657374206661696c6564000000000000000000000000006000830152602082019050919050565b60006112f86018836116cc565b91507f54686973207573657220686173206e6f206163636f756e7400000000000000006000830152602082019050919050565b6000611338602c836116cc565b91507f596f752063616e2774206769766520616e20656d707479207265706f7369746f60008301527f727920746f2061207573657200000000000000000000000000000000000000006020830152604082019050919050565b600061139e6017836116cc565b91507f54686973207573657220646f65736e27742065786973740000000000000000006000830152602082019050919050565b60006113de6024836116cc565b91507f596f752063616e206f6e6c792064656c65746520796f7572206f776e2061636360008301527f6f756e74000000000000000000000000000000000000000000000000000000006020830152604082019050919050565b600060408301600083015161144f60008601826110d0565b506020830151848203602086015261146782826110ee565b9150508091505092915050565b61147d81611726565b82525050565b600061148f8284611194565b915081905092915050565b60006020820190506114af60008301846110df565b92915050565b60006020820190506114ca600083018461114c565b92915050565b600060208201905081810360008301526114ea818461115b565b905092915050565b6000602082019050818103600083015261150b816111c5565b9050919050565b6000602082019050818103600083015261152b81611205565b9050919050565b6000602082019050818103600083015261154b8161126b565b9050919050565b6000602082019050818103600083015261156b816112ab565b9050919050565b6000602082019050818103600083015261158b816112eb565b9050919050565b600060208201905081810360008301526115ab8161132b565b9050919050565b600060208201905081810360008301526115cb81611391565b9050919050565b600060208201905081810360008301526115eb816113d1565b9050919050565b6000602082019050818103600083015261160c8184611437565b905092915050565b60006020820190506116296000830184611474565b92915050565b6000604051905081810181811067ffffffffffffffff8211171561165257600080fd5b8060405250919050565b600067ffffffffffffffff82111561167357600080fd5b601f19601f8301169050602081019050919050565b6000819050602082019050919050565b600081519050919050565b600081519050919050565b6000602082019050919050565b600082825260208201905092915050565b600082825260208201905092915050565b600081905092915050565b60006116f382611706565b9050919050565b60008115159050919050565b600073ffffffffffffffffffffffffffffffffffffffff82169050919050565b6000819050919050565b82818337600083830152505050565b60005b8381101561175d578082015181840152602081019050611742565b8381111561176c576000848401525b50505050565b6000601f19601f8301169050919050565b61178c816116e8565b811461179757600080fd5b5056fea2646970667358221220fd4449334d57dd34fc45d1f7dce5e13b3eefca4d7fa5de7149562cde682bd8bf64736f6c63430006080033",
  "immutableReferences": {},
  "source": "// SPDX-License-Identifier: MIT\r\npragma solidity ^0.6.0;\r\npragma experimental ABIEncoderV2;\r\n\r\nimport \"../node_modules/@openzeppelin/contracts/utils/EnumerableSet.sol\";\r\nimport './Repository.sol';\r\n\r\ncontract UserService {\r\n    using EnumerableSet for EnumerableSet.AddressSet;\r\n\r\n    struct User {\r\n        address _address;\r\n        address[] _repositories;\r\n    }\r\n\r\n    mapping(string => User) usernameToUser;\r\n    mapping(address => string) addressToUsername;\r\n\r\n    EnumerableSet.AddressSet users;\r\n\r\n    event NewUserAdded(string _username);\r\n    event UserDeleted(string _username);\r\n    event UserHasNewRepository(address repo);\r\n\r\n    function ReturnUser(string memory _username) public view returns(User memory) {\r\n        require(usernameExists(_username),\"The specified user doesn't exist\");\r\n        User storage user = usernameToUser[_username];\r\n        return user;\r\n    }\r\n\r\n    function usernameExists(string memory _username) public view returns(bool) {\r\n        return usernameToUser[_username]._address != address(0);\r\n    }\r\n\r\n    function RequireTest() public pure {\r\n        require(1==2,\"Require test failed\");\r\n    }\r\n\r\n    function GetUsernameFromTXUser() public view returns(string memory) {\r\n        require(TXUserHasAccount(),\"This user has no account\");\r\n        return addressToUsername[tx.origin];\r\n    }\r\n\r\n    function GetUsernameFromUser() public view returns(string memory) {\r\n        require(userHasAccount(),\"This user has no account\");\r\n        return addressToUsername[msg.sender];\r\n    }\r\n\r\n    function TXUserHasAccount() public view returns(bool){\r\n        return users.contains(tx.origin);\r\n    }\r\n\r\n    function userHasAccount() public view returns(bool){\r\n        return users.contains(msg.sender);\r\n    }\r\n\r\n    function addUser(string memory _username) public{\r\n        require(!usernameExists(_username),\"You have to provide a unique username\");\r\n        require(!users.contains(msg.sender),\"This user already has an account\");\r\n\r\n        usernameToUser[_username]._address = msg.sender;\r\n        addressToUsername[msg.sender] = _username;\r\n        users.add(msg.sender);\r\n\r\n        emit NewUserAdded(_username);\r\n    }\r\n\r\n    function getUser(string memory _username) public view returns(address){\r\n        require(usernameExists(_username),\"This user doesn't exist\");\r\n        return usernameToUser[_username]._address;\r\n    }\r\n\r\n    function getAmountOfUsers() public view returns(uint) {\r\n        return users.length();\r\n    }\r\n\r\n    function removeUser(string memory _username) public {\r\n        require(usernameExists(_username),\"This user doesn't exist\");\r\n\r\n        address ad = usernameToUser[_username]._address;\r\n        require(ad == msg.sender,\"You can only delete your own account\");\r\n\r\n        users.remove(msg.sender);\r\n        usernameToUser[_username]._address = address(0);\r\n        addressToUsername[msg.sender] = \"\";\r\n\r\n        emit UserDeleted(_username);\r\n    }\r\n\r\n    function addRepositoryToUser(string memory _username, address _repoAd) public {\r\n        require(usernameExists(_username),\"The specified user doesn't exist\");\r\n        require(_repoAd != address(0),\"You can't give an empty repository to a user\");\r\n\r\n        User storage user = usernameToUser[_username];\r\n        user._repositories.push(_repoAd);\r\n\r\n        emit UserHasNewRepository(_repoAd);\r\n    }\r\n}",
  "sourcePath": "C:\\Users\\gebruiker\\Desktop\\Studies\\Bachelor proef\\Bachelorproef\\Demo\\Demo\\Contracts\\contracts\\UserService.sol",
  "compiler": {
    "name": "solc",
    "version": "0.6.8+commit.0bbfe453.Emscripten.clang"
  },
  "schemaVersion": "3.1.0",
  "updatedAt": "2020-05-25T07:59:47.323Z",
  "devdoc": {
    "methods": {}
  },
  "userdoc": {
    "methods": {}
  }
}