{
  "contractName": "UserService",
  "abi": [
    {
      "anonymous": false,
      "inputs": [
        {
          "indexed": false,
          "internalType": "string",
          "name": "_username",
          "type": "string"
        }
      ],
      "name": "NewUserAdded",
      "type": "event"
    },
    {
      "anonymous": false,
      "inputs": [
        {
          "indexed": false,
          "internalType": "string",
          "name": "_username",
          "type": "string"
        }
      ],
      "name": "UserDeleted",
      "type": "event"
    },
    {
      "inputs": [
        {
          "internalType": "string",
          "name": "_username",
          "type": "string"
        }
      ],
      "name": "usernameExists",
      "outputs": [
        {
          "internalType": "bool",
          "name": "",
          "type": "bool"
        }
      ],
      "stateMutability": "view",
      "type": "function"
    },
    {
      "inputs": [],
      "name": "userHasAccount",
      "outputs": [
        {
          "internalType": "bool",
          "name": "",
          "type": "bool"
        }
      ],
      "stateMutability": "view",
      "type": "function"
    },
    {
      "inputs": [
        {
          "internalType": "string",
          "name": "_username",
          "type": "string"
        }
      ],
      "name": "addUser",
      "outputs": [],
      "stateMutability": "nonpayable",
      "type": "function"
    },
    {
      "inputs": [
        {
          "internalType": "string",
          "name": "_username",
          "type": "string"
        }
      ],
      "name": "getUser",
      "outputs": [
        {
          "internalType": "address",
          "name": "",
          "type": "address"
        }
      ],
      "stateMutability": "view",
      "type": "function"
    },
    {
      "inputs": [],
      "name": "getAmountOfUsers",
      "outputs": [
        {
          "internalType": "uint256",
          "name": "",
          "type": "uint256"
        }
      ],
      "stateMutability": "view",
      "type": "function"
    },
    {
      "inputs": [
        {
          "internalType": "string",
          "name": "_username",
          "type": "string"
        }
      ],
      "name": "removeUser",
      "outputs": [],
      "stateMutability": "nonpayable",
      "type": "function"
    }
  ],
  "bytecode": "0x608060405234801561001057600080fd5b50610dd1806100206000396000f3fe608060405234801561001057600080fd5b50600436106100625760003560e01c806318b8275a1461006757806331feb6711461012257806332fa119b1461021d578063600cee781461023f5780636dd9751a146102fa578063f309e3f914610318575b600080fd5b6101206004803603602081101561007d57600080fd5b810190808035906020019064010000000081111561009a57600080fd5b8201836020820111156100ac57600080fd5b803590602001918460018302840111640100000000831117156100ce57600080fd5b91908080601f016020809104026020016040519081016040528093929190818152602001838380828437600081840152601f19601f8201169050808301925050505050505091929192905050506103eb565b005b6101db6004803603602081101561013857600080fd5b810190808035906020019064010000000081111561015557600080fd5b82018360208201111561016757600080fd5b8035906020019184600183028401116401000000008311171561018957600080fd5b91908080601f016020809104026020016040519081016040528093929190818152602001838380828437600081840152601f19601f820116905080830192505050505050509192919290505050610630565b604051808273ffffffffffffffffffffffffffffffffffffffff1673ffffffffffffffffffffffffffffffffffffffff16815260200191505060405180910390f35b610225610741565b604051808215151515815260200191505060405180910390f35b6102f86004803603602081101561025557600080fd5b810190808035906020019064010000000081111561027257600080fd5b82018360208201111561028457600080fd5b803590602001918460018302840111640100000000831117156102a657600080fd5b91908080601f016020809104026020016040519081016040528093929190818152602001838380828437600081840152601f19601f82011690508083019250505050505050919291929050505061075c565b005b610302610a4b565b6040518082815260200191505060405180910390f35b6103d16004803603602081101561032e57600080fd5b810190808035906020019064010000000081111561034b57600080fd5b82018360208201111561035d57600080fd5b8035906020019184600183028401116401000000008311171561037f57600080fd5b91908080601f016020809104026020016040519081016040528093929190818152602001838380828437600081840152601f19601f820116905080830192505050505050509192919290505050610a5c565b604051808215151515815260200191505060405180910390f35b6103f481610a5c565b1561044a576040517f08c379a0000000000000000000000000000000000000000000000000000000008152600401808060200182810382526025815260200180610d536025913960400191505060405180910390fd5b61045e336001610b2190919063ffffffff16565b156104d1576040517f08c379a00000000000000000000000000000000000000000000000000000000081526004018080602001828103825260208152602001807f54686973207573657220616c72656164792068617320616e206163636f756e7481525060200191505060405180910390fd5b336000826040518082805190602001908083835b6020831061050857805182526020820191506020810190506020830392506104e5565b6001836020036101000a038019825116818451168082178552505050505050905001915050908152602001604051809103902060000160006101000a81548173ffffffffffffffffffffffffffffffffffffffff021916908373ffffffffffffffffffffffffffffffffffffffff160217905550610590336001610b5190919063ffffffff16565b507f700013834c7df46b7742d17c10b80c33de4aba3c909413be3b85be835b315d16816040518080602001828103825283818151815260200191508051906020019080838360005b838110156105f35780820151818401526020810190506105d8565b50505050905090810190601f1680156106205780820380516001836020036101000a031916815260200191505b509250505060405180910390a150565b600061063b82610a5c565b6106ad576040517f08c379a00000000000000000000000000000000000000000000000000000000081526004018080602001828103825260178152602001807f54686973207573657220646f65736e277420657869737400000000000000000081525060200191505060405180910390fd5b6000826040518082805190602001908083835b602083106106e357805182526020820191506020810190506020830392506106c0565b6001836020036101000a038019825116818451168082178552505050505050905001915050908152602001604051809103902060000160009054906101000a900473ffffffffffffffffffffffffffffffffffffffff169050919050565b6000610757336001610b2190919063ffffffff16565b905090565b61076581610a5c565b6107d7576040517f08c379a00000000000000000000000000000000000000000000000000000000081526004018080602001828103825260178152602001807f54686973207573657220646f65736e277420657869737400000000000000000081525060200191505060405180910390fd5b600080826040518082805190602001908083835b6020831061080e57805182526020820191506020810190506020830392506107eb565b6001836020036101000a038019825116818451168082178552505050505050905001915050908152602001604051809103902060000160009054906101000a900473ffffffffffffffffffffffffffffffffffffffff1690503373ffffffffffffffffffffffffffffffffffffffff168173ffffffffffffffffffffffffffffffffffffffff16146108eb576040517f08c379a0000000000000000000000000000000000000000000000000000000008152600401808060200182810382526024815260200180610d786024913960400191505060405180910390fd5b6108ff336001610b8190919063ffffffff16565b50600080836040518082805190602001908083835b602083106109375780518252602082019150602081019050602083039250610914565b6001836020036101000a038019825116818451168082178552505050505050905001915050908152602001604051809103902060000160006101000a81548173ffffffffffffffffffffffffffffffffffffffff021916908373ffffffffffffffffffffffffffffffffffffffff1602179055507f28f7ad4961343bc792aec8e7886fc38c6847f9cd253ec14a633ff3bed8370883826040518080602001828103825283818151815260200191508051906020019080838360005b83811015610a0d5780820151818401526020810190506109f2565b50505050905090810190601f168015610a3a5780820380516001836020036101000a031916815260200191505b509250505060405180910390a15050565b6000610a576001610bb1565b905090565b60008073ffffffffffffffffffffffffffffffffffffffff166000836040518082805190602001908083835b60208310610aab5780518252602082019150602081019050602083039250610a88565b6001836020036101000a038019825116818451168082178552505050505050905001915050908152602001604051809103902060000160009054906101000a900473ffffffffffffffffffffffffffffffffffffffff1673ffffffffffffffffffffffffffffffffffffffff1614159050919050565b6000610b49836000018373ffffffffffffffffffffffffffffffffffffffff1660001b610bc6565b905092915050565b6000610b79836000018373ffffffffffffffffffffffffffffffffffffffff1660001b610be9565b905092915050565b6000610ba9836000018373ffffffffffffffffffffffffffffffffffffffff1660001b610c59565b905092915050565b6000610bbf82600001610d41565b9050919050565b600080836001016000848152602001908152602001600020541415905092915050565b6000610bf58383610bc6565b610c4e578260000182908060018154018082558091505060019003906000526020600020016000909190919091505582600001805490508360010160008481526020019081526020016000208190555060019050610c53565b600090505b92915050565b60008083600101600084815260200190815260200160002054905060008114610d355760006001820390506000600186600001805490500390506000866000018281548110610ca457fe5b9060005260206000200154905080876000018481548110610cc157fe5b9060005260206000200181905550600183018760010160008381526020019081526020016000208190555086600001805480610cf957fe5b60019003818190600052602060002001600090559055866001016000878152602001908152602001600020600090556001945050505050610d3b565b60009150505b92915050565b60008160000180549050905091905056fe596f75206861766520746f2070726f76696465206120756e6971756520757365726e616d65596f752063616e206f6e6c792064656c65746520796f7572206f776e206163636f756e74a2646970667358221220343cc0830b0a38888a1ef1fce7c36045268ff7d30e6e875d471fc7cfd942870a64736f6c63430006080033",
  "immutableReferences": {},
  "source": "// SPDX-License-Identifier: MIT\r\npragma solidity ^0.6.0;\r\n\r\nimport \"@openzeppelin/contracts/utils/EnumerableSet.sol\";\r\n\r\ncontract UserService {\r\n    using EnumerableSet for EnumerableSet.AddressSet;\r\n\r\n    struct User {\r\n        address _address;\r\n    }\r\n\r\n    mapping(string => User) usernameToUser;\r\n    EnumerableSet.AddressSet users;\r\n\r\n    event NewUserAdded(string _username);\r\n    event UserDeleted(string _username);\r\n\r\n    function usernameExists(string memory _username) public view returns(bool) {\r\n        return usernameToUser[_username]._address != address(0);\r\n    }\r\n\r\n    function userHasAccount() public view returns(bool){\r\n        return users.contains(msg.sender);\r\n    }\r\n\r\n    function addUser(string memory _username) public {\r\n        require(!usernameExists(_username),\"You have to provide a unique username\");\r\n        require(!users.contains(msg.sender),\"This user already has an account\");\r\n\r\n        usernameToUser[_username]._address = msg.sender;\r\n        users.add(msg.sender);\r\n\r\n        emit NewUserAdded(_username);\r\n    }\r\n\r\n    function getUser(string memory _username) public view returns(address){\r\n        require(usernameExists(_username),\"This user doesn't exist\");\r\n        return usernameToUser[_username]._address;\r\n    }\r\n\r\n    function getAmountOfUsers() public view returns(uint) {\r\n        return users.length();\r\n    }\r\n\r\n    function removeUser(string memory _username) public {\r\n        require(usernameExists(_username),\"This user doesn't exist\");\r\n\r\n        address ad = usernameToUser[_username]._address;\r\n        require(ad == msg.sender,\"You can only delete your own account\");\r\n\r\n        users.remove(msg.sender);\r\n        usernameToUser[_username]._address = address(0);\r\n\r\n        emit UserDeleted(_username);\r\n    }\r\n}",
  "sourcePath": "C:\\Users\\gebruiker\\Desktop\\Studies\\Bachelor proef\\Bachelorproef\\Demo\\Demo\\Contracts\\contracts\\UserService.sol",
  "compiler": {
    "name": "solc",
    "version": "0.6.8+commit.0bbfe453.Emscripten.clang"
  },
  "schemaVersion": "3.1.0",
  "updatedAt": "2020-05-21T20:39:12.597Z",
  "devdoc": {
    "methods": {}
  },
  "userdoc": {
    "methods": {}
  }
}