{
  "contractName": "HelloWorld",
  "abi": [
    {
      "constant": true,
      "inputs": [],
      "name": "SayHello",
      "outputs": [
        {
          "name": "",
          "type": "string"
        }
      ],
      "payable": false,
      "stateMutability": "pure",
      "type": "function",
      "signature": "0x3acb3150"
    }
  ],
  "bytecode": "0x608060405234801561001057600080fd5b5061013f806100206000396000f3fe608060405260043610610041576000357c0100000000000000000000000000000000000000000000000000000000900463ffffffff1680633acb315014610046575b600080fd5b34801561005257600080fd5b5061005b6100d6565b6040518080602001828103825283818151815260200191508051906020019080838360005b8381101561009b578082015181840152602081019050610080565b50505050905090810190601f1680156100c85780820380516001836020036101000a031916815260200191505b509250505060405180910390f35b60606040805190810160405280600b81526020017f48656c6c6f20576f726c6400000000000000000000000000000000000000000081525090509056fea165627a7a7230582078c14950b4ac5d5ae08ec0ee6f5d1d37a8698251c7c8f29860b5689bdf45c23d0029",
  "source": "pragma solidity >=0.4.21 <0.7.0;\r\n\r\ncontract HelloWorld{\r\n    function SayHello() public pure returns(string memory){\r\n        return \"Hello World\";\r\n    }\r\n}",
  "sourcePath": "C:/Users/gebruiker/Desktop/Studies/Bachelor proef/Bachelorproef/Demo/Testing Demo/contracts/HelloWorld.sol",
  "compiler": {
    "name": "solc",
    "version": "0.5.0+commit.1d4f565a.Emscripten.clang"
  },
  "schemaVersion": "3.0.2",
  "updatedAt": "2020-05-21T15:59:23.502Z",
  "devdoc": {
    "methods": {}
  },
  "userdoc": {
    "methods": {}
  }
}