{
  "contractName": "Token",
  "abi": [
    {
      "constant": true,
      "inputs": [],
      "name": "totalSupply",
      "outputs": [
        {
          "name": "",
          "type": "uint256"
        }
      ],
      "payable": false,
      "stateMutability": "view",
      "type": "function",
      "signature": "0x18160ddd"
    },
    {
      "inputs": [],
      "payable": false,
      "stateMutability": "nonpayable",
      "type": "constructor",
      "signature": "constructor"
    }
  ],
  "bytecode": "0x608060405234801561001057600080fd5b50620f4240600081905550609e806100296000396000f3fe608060405260043610603f576000357c0100000000000000000000000000000000000000000000000000000000900463ffffffff16806318160ddd146044575b600080fd5b348015604f57600080fd5b506056606c565b6040518082815260200191505060405180910390f35b6000548156fea165627a7a72305820ceb0ecac2b7c45ff7d4a21571fdc1e6de0ff608e57ab593ea6f2846a9266c75b0029",
  "source": "pragma solidity >=0.4.2;\r\n\r\ncontract Token {\r\n    //State variable, available to the entire contract.\r\n    //Write to blockchain every update\r\n    //Already contains a getter\r\n    uint256 public totalSupply;\r\n\r\n    //Constructor\r\n    //Set tokens-total\r\n    constructor() public {\r\n        totalSupply = 1000000;\r\n    }\r\n}",
  "sourcePath": "C:/Users/gebruiker/Desktop/Studies/Bachelor proef/Bachelorproef/Demo/Example app smart contracts/contracts/Token.sol",
  "compiler": {
    "name": "solc",
    "version": "0.5.0+commit.1d4f565a.Emscripten.clang"
  },
  "schemaVersion": "3.0.2",
  "updatedAt": "2020-05-16T10:19:02.740Z",
  "devdoc": {
    "methods": {}
  },
  "userdoc": {
    "methods": {}
  }
}